{"abi":[{"type":"constructor","inputs":[{"name":"name_","type":"string","internalType":"string"},{"name":"symbol_","type":"string","internalType":"string"},{"name":"initialOwner","type":"address","internalType":"address"}],"stateMutability":"nonpayable"},{"type":"function","name":"approve","inputs":[{"name":"to","type":"address","internalType":"address"},{"name":"tokenId","type":"uint256","internalType":"uint256"}],"outputs":[],"stateMutability":"nonpayable"},{"type":"function","name":"balanceOf","inputs":[{"name":"owner","type":"address","internalType":"address"}],"outputs":[{"name":"","type":"uint256","internalType":"uint256"}],"stateMutability":"view"},{"type":"function","name":"getApproved","inputs":[{"name":"tokenId","type":"uint256","internalType":"uint256"}],"outputs":[{"name":"","type":"address","internalType":"address"}],"stateMutability":"view"},{"type":"function","name":"getScore","inputs":[{"name":"borrower","type":"address","internalType":"address"}],"outputs":[{"name":"value","type":"uint256","internalType":"uint256"},{"name":"timestamp","type":"uint256","internalType":"uint256"},{"name":"valid","type":"bool","internalType":"bool"}],"stateMutability":"view"},{"type":"function","name":"hasSbt","inputs":[{"name":"wallet","type":"address","internalType":"address"}],"outputs":[{"name":"","type":"bool","internalType":"bool"}],"stateMutability":"view"},{"type":"function","name":"isApprovedForAll","inputs":[{"name":"owner","type":"address","internalType":"address"},{"name":"operator","type":"address","internalType":"address"}],"outputs":[{"name":"","type":"bool","internalType":"bool"}],"stateMutability":"view"},{"type":"function","name":"issueScore","inputs":[{"name":"borrower","type":"address","internalType":"address"},{"name":"value","type":"uint256","internalType":"uint256"}],"outputs":[],"stateMutability":"nonpayable"},{"type":"function","name":"locked","inputs":[{"name":"tokenId","type":"uint256","internalType":"uint256"}],"outputs":[{"name":"","type":"bool","internalType":"bool"}],"stateMutability":"view"},{"type":"function","name":"name","inputs":[],"outputs":[{"name":"","type":"string","internalType":"string"}],"stateMutability":"view"},{"type":"function","name":"owner","inputs":[],"outputs":[{"name":"","type":"address","internalType":"address"}],"stateMutability":"view"},{"type":"function","name":"ownerOf","inputs":[{"name":"tokenId","type":"uint256","internalType":"uint256"}],"outputs":[{"name":"","type":"address","internalType":"address"}],"stateMutability":"view"},{"type":"function","name":"renounceOwnership","inputs":[],"outputs":[],"stateMutability":"nonpayable"},{"type":"function","name":"revokeScore","inputs":[{"name":"borrower","type":"address","internalType":"address"}],"outputs":[],"stateMutability":"nonpayable"},{"type":"function","name":"safeTransferFrom","inputs":[{"name":"from","type":"address","internalType":"address"},{"name":"to","type":"address","internalType":"address"},{"name":"tokenId","type":"uint256","internalType":"uint256"}],"outputs":[],"stateMutability":"nonpayable"},{"type":"function","name":"safeTransferFrom","inputs":[{"name":"from","type":"address","internalType":"address"},{"name":"to","type":"address","internalType":"address"},{"name":"tokenId","type":"uint256","internalType":"uint256"},{"name":"data","type":"bytes","internalType":"bytes"}],"outputs":[],"stateMutability":"nonpayable"},{"type":"function","name":"scores","inputs":[{"name":"","type":"address","internalType":"address"}],"outputs":[{"name":"value","type":"uint256","internalType":"uint256"},{"name":"timestamp","type":"uint256","internalType":"uint256"},{"name":"valid","type":"bool","internalType":"bool"}],"stateMutability":"view"},{"type":"function","name":"setApprovalForAll","inputs":[{"name":"operator","type":"address","internalType":"address"},{"name":"approved","type":"bool","internalType":"bool"}],"outputs":[],"stateMutability":"nonpayable"},{"type":"function","name":"supportsInterface","inputs":[{"name":"interfaceId","type":"bytes4","internalType":"bytes4"}],"outputs":[{"name":"","type":"bool","internalType":"bool"}],"stateMutability":"view"},{"type":"function","name":"symbol","inputs":[],"outputs":[{"name":"","type":"string","internalType":"string"}],"stateMutability":"view"},{"type":"function","name":"tokenIdOf","inputs":[{"name":"wallet","type":"address","internalType":"address"}],"outputs":[{"name":"","type":"uint256","internalType":"uint256"}],"stateMutability":"pure"},{"type":"function","name":"tokenURI","inputs":[{"name":"tokenId","type":"uint256","internalType":"uint256"}],"outputs":[{"name":"","type":"string","internalType":"string"}],"stateMutability":"view"},{"type":"function","name":"transferFrom","inputs":[{"name":"from","type":"address","internalType":"address"},{"name":"to","type":"address","internalType":"address"},{"name":"tokenId","type":"uint256","internalType":"uint256"}],"outputs":[],"stateMutability":"nonpayable"},{"type":"function","name":"transferOwnership","inputs":[{"name":"newOwner","type":"address","internalType":"address"}],"outputs":[],"stateMutability":"nonpayable"},{"type":"event","name":"Approval","inputs":[{"name":"owner","type":"address","indexed":true,"internalType":"address"},{"name":"approved","type":"address","indexed":true,"internalType":"address"},{"name":"tokenId","type":"uint256","indexed":true,"internalType":"uint256"}],"anonymous":false},{"type":"event","name":"ApprovalForAll","inputs":[{"name":"owner","type":"address","indexed":true,"internalType":"address"},{"name":"operator","type":"address","indexed":true,"internalType":"address"},{"name":"approved","type":"bool","indexed":false,"internalType":"bool"}],"anonymous":false},{"type":"event","name":"Locked","inputs":[{"name":"tokenId","type":"uint256","indexed":false,"internalType":"uint256"}],"anonymous":false},{"type":"event","name":"OwnershipTransferred","inputs":[{"name":"previousOwner","type":"address","indexed":true,"internalType":"address"},{"name":"newOwner","type":"address","indexed":true,"internalType":"address"}],"anonymous":false},{"type":"event","name":"ScoreIssued","inputs":[{"name":"borrower","type":"address","indexed":true,"internalType":"address"},{"name":"value","type":"uint256","indexed":false,"internalType":"uint256"},{"name":"timestamp","type":"uint256","indexed":false,"internalType":"uint256"}],"anonymous":false},{"type":"event","name":"ScoreRevoked","inputs":[{"name":"borrower","type":"address","indexed":true,"internalType":"address"}],"anonymous":false},{"type":"event","name":"Transfer","inputs":[{"name":"from","type":"address","indexed":true,"internalType":"address"},{"name":"to","type":"address","indexed":true,"internalType":"address"},{"name":"tokenId","type":"uint256","indexed":true,"internalType":"uint256"}],"anonymous":false},{"type":"event","name":"Unlocked","inputs":[{"name":"tokenId","type":"uint256","indexed":false,"internalType":"uint256"}],"anonymous":false},{"type":"error","name":"ERC721IncorrectOwner","inputs":[{"name":"sender","type":"address","internalType":"address"},{"name":"tokenId","type":"uint256","internalType":"uint256"},{"name":"owner","type":"address","internalType":"address"}]},{"type":"error","name":"ERC721InsufficientApproval","inputs":[{"name":"operator","type":"address","internalType":"address"},{"name":"tokenId","type":"uint256","internalType":"uint256"}]},{"type":"error","name":"ERC721InvalidApprover","inputs":[{"name":"approver","type":"address","internalType":"address"}]},{"type":"error","name":"ERC721InvalidOperator","inputs":[{"name":"operator","type":"address","internalType":"address"}]},{"type":"error","name":"ERC721InvalidOwner","inputs":[{"name":"owner","type":"address","internalType":"address"}]},{"type":"error","name":"ERC721InvalidReceiver","inputs":[{"name":"receiver","type":"address","internalType":"address"}]},{"type":"error","name":"ERC721InvalidSender","inputs":[{"name":"sender","type":"address","internalType":"address"}]},{"type":"error","name":"ERC721NonexistentToken","inputs":[{"name":"tokenId","type":"uint256","internalType":"uint256"}]},{"type":"error","name":"OwnableInvalidOwner","inputs":[{"name":"owner","type":"address","internalType":"address"}]},{"type":"error","name":"OwnableUnauthorizedAccount","inputs":[{"name":"account","type":"address","internalType":"address"}]}],"bytecode":{"object":"0x608060405234801561000f575f5ffd5b50604051612ffd380380612ffd83398181016040528101906100319190610347565b808383815f908161004291906105df565b50806001908161005291906105df565b5050505f73ffffffffffffffffffffffffffffffffffffffff168173ffffffffffffffffffffffffffffffffffffffff16036100c5575f6040517f1e4fbdf70000000000000000000000000000000000000000000000000000000081526004016100bc91906106bd565b60405180910390fd5b6100d4816100dd60201b60201c565b505050506106d6565b5f60065f9054906101000a900473ffffffffffffffffffffffffffffffffffffffff1690508160065f6101000a81548173ffffffffffffffffffffffffffffffffffffffff021916908373ffffffffffffffffffffffffffffffffffffffff1602179055508173ffffffffffffffffffffffffffffffffffffffff168173ffffffffffffffffffffffffffffffffffffffff167f8be0079c531659141344cd1fd0a4f28419497f9722a3daafe3b4186f6b6457e060405160405180910390a35050565b5f604051905090565b5f5ffd5b5f5ffd5b5f5ffd5b5f5ffd5b5f601f19601f8301169050919050565b7f4e487b71000000000000000000000000000000000000000000000000000000005f52604160045260245ffd5b6101ff826101b9565b810181811067ffffffffffffffff8211171561021e5761021d6101c9565b5b80604052505050565b5f6102306101a0565b905061023c82826101f6565b919050565b5f67ffffffffffffffff82111561025b5761025a6101c9565b5b610264826101b9565b9050602081019050919050565b8281835e5f83830152505050565b5f61029161028c84610241565b610227565b9050828152602081018484840111156102ad576102ac6101b5565b5b6102b8848285610271565b509392505050565b5f82601f8301126102d4576102d36101b1565b5b81516102e484826020860161027f565b91505092915050565b5f73ffffffffffffffffffffffffffffffffffffffff82169050919050565b5f610316826102ed565b9050919050565b6103268161030c565b8114610330575f5ffd5b50565b5f815190506103418161031d565b92915050565b5f5f5f6060848603121561035e5761035d6101a9565b5b5f84015167ffffffffffffffff81111561037b5761037a6101ad565b5b610387868287016102c0565b935050602084015167ffffffffffffffff8111156103a8576103a76101ad565b5b6103b4868287016102c0565b92505060406103c586828701610333565b9150509250925092565b5f81519050919050565b7f4e487b71000000000000000000000000000000000000000000000000000000005f52602260045260245ffd5b5f600282049050600182168061041d57607f821691505b6020821081036104305761042f6103d9565b5b50919050565b5f819050815f5260205f209050919050565b5f6020601f8301049050919050565b5f82821b905092915050565b5f600883026104927fffffffffffffffffffffffffffffffffffffffffffffffffffffffffffffffff82610457565b61049c8683610457565b95508019841693508086168417925050509392505050565b5f819050919050565b5f819050919050565b5f6104e06104db6104d6846104b4565b6104bd565b6104b4565b9050919050565b5f819050919050565b6104f9836104c6565b61050d610505826104e7565b848454610463565b825550505050565b5f5f905090565b610524610515565b61052f8184846104f0565b505050565b5b81811015610552576105475f8261051c565b600181019050610535565b5050565b601f8211156105975761056881610436565b61057184610448565b81016020851015610580578190505b61059461058c85610448565b830182610534565b50505b505050565b5f82821c905092915050565b5f6105b75f198460080261059c565b1980831691505092915050565b5f6105cf83836105a8565b9150826002028217905092915050565b6105e8826103cf565b67ffffffffffffffff811115610601576106006101c9565b5b61060b8254610406565b610616828285610556565b5f60209050601f831160018114610647575f8415610635578287015190505b61063f85826105c4565b8655506106a6565b601f19841661065586610436565b5f5b8281101561067c57848901518255600182019150602085019450602081019050610657565b868310156106995784890151610695601f8916826105a8565b8355505b6001600288020188555050505b505050505050565b6106b78161030c565b82525050565b5f6020820190506106d05f8301846106ae565b92915050565b61291a806106e35f395ff3fe608060405234801561000f575f5ffd5b506004361061014b575f3560e01c8063773c02d4116100c1578063b45a3c0e1161007a578063b45a3c0e146103ad578063b88d4fde146103dd578063c87b56dd146103f9578063d47875d014610429578063e985e9c51461045b578063f2fde38b1461048b5761014b565b8063773c02d4146102d9578063871ec6c01461030957806387b605a5146103255780638da5cb5b1461035557806395d89b4114610373578063a22cb465146103915761014b565b8063256b79e911610113578063256b79e91461020557806342842e0e146102215780636352211e1461023d57806370a082311461026d578063715018a61461029d57806376dd110f146102a75761014b565b806301ffc9a71461014f57806306fdde031461017f578063081812fc1461019d578063095ea7b3146101cd57806323b872dd146101e9575b5f5ffd5b61016960048036038101906101649190611f99565b6104a7565b6040516101769190611fde565b60405180910390f35b610187610520565b6040516101949190612067565b60405180910390f35b6101b760048036038101906101b291906120ba565b6105af565b6040516101c49190612124565b60405180910390f35b6101e760048036038101906101e29190612167565b6105ca565b005b61020360048036038101906101fe91906121a5565b6105e0565b005b61021f600480360381019061021a91906121f5565b6106df565b005b61023b600480360381019061023691906121a5565b610802565b005b610257600480360381019061025291906120ba565b610821565b6040516102649190612124565b60405180910390f35b610287600480360381019061028291906121f5565b610832565b604051610294919061222f565b60405180910390f35b6102a56108e8565b005b6102c160048036038101906102bc91906121f5565b6108fb565b6040516102d093929190612248565b60405180910390f35b6102f360048036038101906102ee91906121f5565b61092d565b604051610300919061222f565b60405180910390f35b610323600480360381019061031e9190612167565b61094c565b005b61033f600480360381019061033a91906121f5565b610ac1565b60405161034c9190611fde565b60405180910390f35b61035d610b09565b60405161036a9190612124565b60405180910390f35b61037b610b31565b6040516103889190612067565b60405180910390f35b6103ab60048036038101906103a691906122a7565b610bc1565b005b6103c760048036038101906103c291906120ba565b610bd7565b6040516103d49190611fde565b60405180910390f35b6103f760048036038101906103f29190612411565b610c17565b005b610413600480360381019061040e91906120ba565b610c3c565b6040516104209190612067565b60405180910390f35b610443600480360381019061043e91906121f5565b610cfd565b60405161045293929190612248565b60405180910390f35b61047560048036038101906104709190612491565b610d94565b6040516104829190611fde565b60405180910390f35b6104a560048036038101906104a091906121f5565b610e22565b005b5f7fb45a3c0e000000000000000000000000000000000000000000000000000000007bffffffffffffffffffffffffffffffffffffffffffffffffffffffff1916827bffffffffffffffffffffffffffffffffffffffffffffffffffffffff19161480610519575061051882610ea6565b5b9050919050565b60605f805461052e906124fc565b80601f016020809104026020016040519081016040528092919081815260200182805461055a906124fc565b80156105a55780601f1061057c576101008083540402835291602001916105a5565b820191905f5260205f20905b81548152906001019060200180831161058857829003601f168201915b5050505050905090565b5f6105b982610f87565b506105c38261100d565b9050919050565b6105dc82826105d7611046565b61104d565b5050565b5f73ffffffffffffffffffffffffffffffffffffffff168273ffffffffffffffffffffffffffffffffffffffff1603610650575f6040517f64a0ae920000000000000000000000000000000000000000000000000000000081526004016106479190612124565b60405180910390fd5b5f610663838361065e611046565b61105f565b90508373ffffffffffffffffffffffffffffffffffffffff168173ffffffffffffffffffffffffffffffffffffffff16146106d9578382826040517f64283d7b0000000000000000000000000000000000000000000000000000000081526004016106d09392919061252c565b60405180910390fd5b50505050565b6106e7611197565b5f73ffffffffffffffffffffffffffffffffffffffff1661070f61070a8361092d565b61121e565b73ffffffffffffffffffffffffffffffffffffffff1603610765576040517f08c379a000000000000000000000000000000000000000000000000000000000815260040161075c906125ab565b60405180910390fd5b5f60075f8373ffffffffffffffffffffffffffffffffffffffff1673ffffffffffffffffffffffffffffffffffffffff1681526020019081526020015f206002015f6101000a81548160ff0219169083151502179055508073ffffffffffffffffffffffffffffffffffffffff167f16df10e89345444e350ded2c87fa62e651db87f81c1b65cda030724286b20dbf60405160405180910390a250565b61081c83838360405180602001604052805f815250610c17565b505050565b5f61082b82610f87565b9050919050565b5f5f73ffffffffffffffffffffffffffffffffffffffff168273ffffffffffffffffffffffffffffffffffffffff16036108a3575f6040517f89c62b6400000000000000000000000000000000000000000000000000000000815260040161089a9190612124565b60405180910390fd5b60035f8373ffffffffffffffffffffffffffffffffffffffff1673ffffffffffffffffffffffffffffffffffffffff1681526020019081526020015f20549050919050565b6108f0611197565b6108f95f611257565b565b6007602052805f5260405f205f91509050805f015490806001015490806002015f9054906101000a900460ff16905083565b5f8173ffffffffffffffffffffffffffffffffffffffff169050919050565b610954611197565b5f61095e8361092d565b90505f73ffffffffffffffffffffffffffffffffffffffff166109808261121e565b73ffffffffffffffffffffffffffffffffffffffff16036109dd576109a5838261131a565b7f032bc66be43dbccb7487781d168eb7bda224628a3b2c3388bdf69b532a3a1611816040516109d4919061222f565b60405180910390a15b60405180606001604052808381526020014281526020016001151581525060075f8573ffffffffffffffffffffffffffffffffffffffff1673ffffffffffffffffffffffffffffffffffffffff1681526020019081526020015f205f820151815f0155602082015181600101556040820151816002015f6101000a81548160ff0219169083151502179055509050508273ffffffffffffffffffffffffffffffffffffffff167f7b66b48c9a6508bcbb6859f97d08e14cc5f5ab435bb4a3079433d3977a2d8e5f8342604051610ab49291906125c9565b60405180910390a2505050565b5f5f73ffffffffffffffffffffffffffffffffffffffff16610aea610ae58461092d565b61121e565b73ffffffffffffffffffffffffffffffffffffffff1614159050919050565b5f60065f9054906101000a900473ffffffffffffffffffffffffffffffffffffffff16905090565b606060018054610b40906124fc565b80601f0160208091040260200160405190810160405280929190818152602001828054610b6c906124fc565b8015610bb75780601f10610b8e57610100808354040283529160200191610bb7565b820191905f5260205f20905b815481529060010190602001808311610b9a57829003601f168201915b5050505050905090565b610bd3610bcc611046565b8383611337565b5050565b5f5f73ffffffffffffffffffffffffffffffffffffffff16610bf88361121e565b73ffffffffffffffffffffffffffffffffffffffff1614159050919050565b610c228484846105e0565b610c36610c2d611046565b858585856114a0565b50505050565b60605f73ffffffffffffffffffffffffffffffffffffffff16610c5e8361121e565b73ffffffffffffffffffffffffffffffffffffffff1603610cb4576040517f08c379a0000000000000000000000000000000000000000000000000000000008152600401610cab906125ab565b60405180910390fd5b6040518060800160405280604381526020016128a260439139610cd68361164c565b604051602001610ce7929190612674565b6040516020818303038152906040529050919050565b5f5f5f5f60075f8673ffffffffffffffffffffffffffffffffffffffff1673ffffffffffffffffffffffffffffffffffffffff1681526020019081526020015f206040518060600160405290815f820154815260200160018201548152602001600282015f9054906101000a900460ff1615151515815250509050805f015181602001518260400151935093509350509193909250565b5f60055f8473ffffffffffffffffffffffffffffffffffffffff1673ffffffffffffffffffffffffffffffffffffffff1681526020019081526020015f205f8373ffffffffffffffffffffffffffffffffffffffff1673ffffffffffffffffffffffffffffffffffffffff1681526020019081526020015f205f9054906101000a900460ff16905092915050565b610e2a611197565b5f73ffffffffffffffffffffffffffffffffffffffff168173ffffffffffffffffffffffffffffffffffffffff1603610e9a575f6040517f1e4fbdf7000000000000000000000000000000000000000000000000000000008152600401610e919190612124565b60405180910390fd5b610ea381611257565b50565b5f7f80ac58cd000000000000000000000000000000000000000000000000000000007bffffffffffffffffffffffffffffffffffffffffffffffffffffffff1916827bffffffffffffffffffffffffffffffffffffffffffffffffffffffff19161480610f7057507f5b5e139f000000000000000000000000000000000000000000000000000000007bffffffffffffffffffffffffffffffffffffffffffffffffffffffff1916827bffffffffffffffffffffffffffffffffffffffffffffffffffffffff1916145b80610f805750610f7f82611716565b5b9050919050565b5f5f610f928361121e565b90505f73ffffffffffffffffffffffffffffffffffffffff168173ffffffffffffffffffffffffffffffffffffffff160361100457826040517f7e273289000000000000000000000000000000000000000000000000000000008152600401610ffb919061222f565b60405180910390fd5b80915050919050565b5f60045f8381526020019081526020015f205f9054906101000a900473ffffffffffffffffffffffffffffffffffffffff169050919050565b5f33905090565b61105a838383600161177f565b505050565b5f5f61106a8461121e565b90505f73ffffffffffffffffffffffffffffffffffffffff168173ffffffffffffffffffffffffffffffffffffffff16141580156110d457505f73ffffffffffffffffffffffffffffffffffffffff168573ffffffffffffffffffffffffffffffffffffffff1614155b15611114576040517f08c379a000000000000000000000000000000000000000000000000000000000815260040161110b906126ec565b60405180910390fd5b5f73ffffffffffffffffffffffffffffffffffffffff168573ffffffffffffffffffffffffffffffffffffffff1603611182576040517f08c379a000000000000000000000000000000000000000000000000000000000815260040161117990612754565b60405180910390fd5b61118d85858561193e565b9150509392505050565b61119f611046565b73ffffffffffffffffffffffffffffffffffffffff166111bd610b09565b73ffffffffffffffffffffffffffffffffffffffff161461121c576111e0611046565b6040517f118cdaa70000000000000000000000000000000000000000000000000000000081526004016112139190612124565b60405180910390fd5b565b5f60025f8381526020019081526020015f205f9054906101000a900473ffffffffffffffffffffffffffffffffffffffff169050919050565b5f60065f9054906101000a900473ffffffffffffffffffffffffffffffffffffffff1690508160065f6101000a81548173ffffffffffffffffffffffffffffffffffffffff021916908373ffffffffffffffffffffffffffffffffffffffff1602179055508173ffffffffffffffffffffffffffffffffffffffff168173ffffffffffffffffffffffffffffffffffffffff167f8be0079c531659141344cd1fd0a4f28419497f9722a3daafe3b4186f6b6457e060405160405180910390a35050565b611333828260405180602001604052805f815250611b49565b5050565b5f73ffffffffffffffffffffffffffffffffffffffff168273ffffffffffffffffffffffffffffffffffffffff16036113a757816040517f5b08ba1800000000000000000000000000000000000000000000000000000000815260040161139e9190612124565b60405180910390fd5b8060055f8573ffffffffffffffffffffffffffffffffffffffff1673ffffffffffffffffffffffffffffffffffffffff1681526020019081526020015f205f8473ffffffffffffffffffffffffffffffffffffffff1673ffffffffffffffffffffffffffffffffffffffff1681526020019081526020015f205f6101000a81548160ff0219169083151502179055508173ffffffffffffffffffffffffffffffffffffffff168373ffffffffffffffffffffffffffffffffffffffff167f17307eab39ab6107e8899845ad3d59bd9653f200f220920489ca2b5937696c31836040516114939190611fde565b60405180910390a3505050565b5f8373ffffffffffffffffffffffffffffffffffffffff163b1115611645578273ffffffffffffffffffffffffffffffffffffffff1663150b7a02868685856040518563ffffffff1660e01b81526004016114fe94939291906127c4565b6020604051808303815f875af192505050801561153957506040513d601f19601f820116820180604052508101906115369190612822565b60015b6115ba573d805f8114611567576040519150601f19603f3d011682016040523d82523d5f602084013e61156c565b606091505b505f8151036115b257836040517f64a0ae920000000000000000000000000000000000000000000000000000000081526004016115a99190612124565b60405180910390fd5b805160208201fd5b63150b7a0260e01b7bffffffffffffffffffffffffffffffffffffffffffffffffffffffff1916817bffffffffffffffffffffffffffffffffffffffffffffffffffffffff19161461164357836040517f64a0ae9200000000000000000000000000000000000000000000000000000000815260040161163a9190612124565b60405180910390fd5b505b5050505050565b60605f600161165a84611b6c565b0190505f8167ffffffffffffffff811115611678576116776122ed565b5b6040519080825280601f01601f1916602001820160405280156116aa5781602001600182028036833780820191505090505b5090505f82602083010190505b60011561170b578080600190039150507f3031323334353637383961626364656600000000000000000000000000000000600a86061a8153600a8581611700576116ff61284d565b5b0494505f85036116b7575b819350505050919050565b5f7f01ffc9a7000000000000000000000000000000000000000000000000000000007bffffffffffffffffffffffffffffffffffffffffffffffffffffffff1916827bffffffffffffffffffffffffffffffffffffffffffffffffffffffff1916149050919050565b80806117b757505f73ffffffffffffffffffffffffffffffffffffffff168273ffffffffffffffffffffffffffffffffffffffff1614155b156118e9575f6117c684610f87565b90505f73ffffffffffffffffffffffffffffffffffffffff168373ffffffffffffffffffffffffffffffffffffffff161415801561183057508273ffffffffffffffffffffffffffffffffffffffff168173ffffffffffffffffffffffffffffffffffffffff1614155b801561184357506118418184610d94565b155b1561188557826040517fa9fbf51f00000000000000000000000000000000000000000000000000000000815260040161187c9190612124565b60405180910390fd5b81156118e757838573ffffffffffffffffffffffffffffffffffffffff168273ffffffffffffffffffffffffffffffffffffffff167f8c5be1e5ebec7d5bd14f71427d1e84f3dd0314c0f7b2291e5b200ac8c7c3b92560405160405180910390a45b505b8360045f8581526020019081526020015f205f6101000a81548173ffffffffffffffffffffffffffffffffffffffff021916908373ffffffffffffffffffffffffffffffffffffffff16021790555050505050565b5f5f6119498461121e565b90505f73ffffffffffffffffffffffffffffffffffffffff168373ffffffffffffffffffffffffffffffffffffffff161461198a57611989818486611cbd565b5b5f73ffffffffffffffffffffffffffffffffffffffff168173ffffffffffffffffffffffffffffffffffffffff1614611a15576119c95f855f5f61177f565b600160035f8373ffffffffffffffffffffffffffffffffffffffff1673ffffffffffffffffffffffffffffffffffffffff1681526020019081526020015f205f82825403925050819055505b5f73ffffffffffffffffffffffffffffffffffffffff168573ffffffffffffffffffffffffffffffffffffffff1614611a9457600160035f8773ffffffffffffffffffffffffffffffffffffffff1673ffffffffffffffffffffffffffffffffffffffff1681526020019081526020015f205f82825401925050819055505b8460025f8681526020019081526020015f205f6101000a81548173ffffffffffffffffffffffffffffffffffffffff021916908373ffffffffffffffffffffffffffffffffffffffff160217905550838573ffffffffffffffffffffffffffffffffffffffff168273ffffffffffffffffffffffffffffffffffffffff167fddf252ad1be2c89b69c2b068fc378daa952ba7f163c4a11628f55a4df523b3ef60405160405180910390a4809150509392505050565b611b538383611d80565b611b67611b5e611046565b5f8585856114a0565b505050565b5f5f5f90507a184f03e93ff9f4daa797ed6e38ed64bf6a1f0100000000000000008310611bc8577a184f03e93ff9f4daa797ed6e38ed64bf6a1f0100000000000000008381611bbe57611bbd61284d565b5b0492506040810190505b6d04ee2d6d415b85acef81000000008310611c05576d04ee2d6d415b85acef81000000008381611bfb57611bfa61284d565b5b0492506020810190505b662386f26fc100008310611c3457662386f26fc100008381611c2a57611c2961284d565b5b0492506010810190505b6305f5e1008310611c5d576305f5e1008381611c5357611c5261284d565b5b0492506008810190505b6127108310611c82576127108381611c7857611c7761284d565b5b0492506004810190505b60648310611ca55760648381611c9b57611c9a61284d565b5b0492506002810190505b600a8310611cb4576001810190505b80915050919050565b611cc8838383611e73565b611d7b575f73ffffffffffffffffffffffffffffffffffffffff168373ffffffffffffffffffffffffffffffffffffffff1603611d3c57806040517f7e273289000000000000000000000000000000000000000000000000000000008152600401611d33919061222f565b60405180910390fd5b81816040517f177e802f000000000000000000000000000000000000000000000000000000008152600401611d7292919061287a565b60405180910390fd5b505050565b5f73ffffffffffffffffffffffffffffffffffffffff168273ffffffffffffffffffffffffffffffffffffffff1603611df0575f6040517f64a0ae92000000000000000000000000000000000000000000000000000000008152600401611de79190612124565b60405180910390fd5b5f611dfc83835f61105f565b90505f73ffffffffffffffffffffffffffffffffffffffff168173ffffffffffffffffffffffffffffffffffffffff1614611e6e575f6040517f73c6ac6e000000000000000000000000000000000000000000000000000000008152600401611e659190612124565b60405180910390fd5b505050565b5f5f73ffffffffffffffffffffffffffffffffffffffff168373ffffffffffffffffffffffffffffffffffffffff1614158015611f2a57508273ffffffffffffffffffffffffffffffffffffffff168473ffffffffffffffffffffffffffffffffffffffff161480611eeb5750611eea8484610d94565b5b80611f2957508273ffffffffffffffffffffffffffffffffffffffff16611f118361100d565b73ffffffffffffffffffffffffffffffffffffffff16145b5b90509392505050565b5f604051905090565b5f5ffd5b5f5ffd5b5f7fffffffff0000000000000000000000000000000000000000000000000000000082169050919050565b611f7881611f44565b8114611f82575f5ffd5b50565b5f81359050611f9381611f6f565b92915050565b5f60208284031215611fae57611fad611f3c565b5b5f611fbb84828501611f85565b91505092915050565b5f8115159050919050565b611fd881611fc4565b82525050565b5f602082019050611ff15f830184611fcf565b92915050565b5f81519050919050565b5f82825260208201905092915050565b8281835e5f83830152505050565b5f601f19601f8301169050919050565b5f61203982611ff7565b6120438185612001565b9350612053818560208601612011565b61205c8161201f565b840191505092915050565b5f6020820190508181035f83015261207f818461202f565b905092915050565b5f819050919050565b61209981612087565b81146120a3575f5ffd5b50565b5f813590506120b481612090565b92915050565b5f602082840312156120cf576120ce611f3c565b5b5f6120dc848285016120a6565b91505092915050565b5f73ffffffffffffffffffffffffffffffffffffffff82169050919050565b5f61210e826120e5565b9050919050565b61211e81612104565b82525050565b5f6020820190506121375f830184612115565b92915050565b61214681612104565b8114612150575f5ffd5b50565b5f813590506121618161213d565b92915050565b5f5f6040838503121561217d5761217c611f3c565b5b5f61218a85828601612153565b925050602061219b858286016120a6565b9150509250929050565b5f5f5f606084860312156121bc576121bb611f3c565b5b5f6121c986828701612153565b93505060206121da86828701612153565b92505060406121eb868287016120a6565b9150509250925092565b5f6020828403121561220a57612209611f3c565b5b5f61221784828501612153565b91505092915050565b61222981612087565b82525050565b5f6020820190506122425f830184612220565b92915050565b5f60608201905061225b5f830186612220565b6122686020830185612220565b6122756040830184611fcf565b949350505050565b61228681611fc4565b8114612290575f5ffd5b50565b5f813590506122a18161227d565b92915050565b5f5f604083850312156122bd576122bc611f3c565b5b5f6122ca85828601612153565b92505060206122db85828601612293565b9150509250929050565b5f5ffd5b5f5ffd5b7f4e487b71000000000000000000000000000000000000000000000000000000005f52604160045260245ffd5b6123238261201f565b810181811067ffffffffffffffff82111715612342576123416122ed565b5b80604052505050565b5f612354611f33565b9050612360828261231a565b919050565b5f67ffffffffffffffff82111561237f5761237e6122ed565b5b6123888261201f565b9050602081019050919050565b828183375f83830152505050565b5f6123b56123b084612365565b61234b565b9050828152602081018484840111156123d1576123d06122e9565b5b6123dc848285612395565b509392505050565b5f82601f8301126123f8576123f76122e5565b5b81356124088482602086016123a3565b91505092915050565b5f5f5f5f6080858703121561242957612428611f3c565b5b5f61243687828801612153565b945050602061244787828801612153565b9350506040612458878288016120a6565b925050606085013567ffffffffffffffff81111561247957612478611f40565b5b612485878288016123e4565b91505092959194509250565b5f5f604083850312156124a7576124a6611f3c565b5b5f6124b485828601612153565b92505060206124c585828601612153565b9150509250929050565b7f4e487b71000000000000000000000000000000000000000000000000000000005f52602260045260245ffd5b5f600282049050600182168061251357607f821691505b602082108103612526576125256124cf565b5b50919050565b5f60608201905061253f5f830186612115565b61254c6020830185612220565b6125596040830184612115565b949350505050565b7f5342543a206e6f74206d696e74656400000000000000000000000000000000005f82015250565b5f612595600f83612001565b91506125a082612561565b602082019050919050565b5f6020820190508181035f8301526125c281612589565b9050919050565b5f6040820190506125dc5f830185612220565b6125e96020830184612220565b9392505050565b5f81905092915050565b5f61260482611ff7565b61260e81856125f0565b935061261e818560208601612011565b80840191505092915050565b7f2e6a736f6e0000000000000000000000000000000000000000000000000000005f82015250565b5f61265e6005836125f0565b91506126698261262a565b600582019050919050565b5f61267f82856125fa565b915061268b82846125fa565b915061269682612652565b91508190509392505050565b7f5342543a206e6f6e2d7472616e7366657261626c6500000000000000000000005f82015250565b5f6126d6601583612001565b91506126e1826126a2565b602082019050919050565b5f6020820190508181035f830152612703816126ca565b9050919050565b7f5342543a206e6f6e2d6275726e61626c650000000000000000000000000000005f82015250565b5f61273e601183612001565b91506127498261270a565b602082019050919050565b5f6020820190508181035f83015261276b81612732565b9050919050565b5f81519050919050565b5f82825260208201905092915050565b5f61279682612772565b6127a0818561277c565b93506127b0818560208601612011565b6127b98161201f565b840191505092915050565b5f6080820190506127d75f830187612115565b6127e46020830186612115565b6127f16040830185612220565b8181036060830152612803818461278c565b905095945050505050565b5f8151905061281c81611f6f565b92915050565b5f6020828403121561283757612836611f3c565b5b5f6128448482850161280e565b91505092915050565b7f4e487b71000000000000000000000000000000000000000000000000000000005f52601260045260245ffd5b5f60408201905061288d5f830185612115565b61289a6020830184612220565b939250505056fe697066733a2f2f6261666b7265696575656f633432376134356c67773578746f6761626b7532347337636135767879736b34737777653662663577376d726a706e6d2fa26469706673582212209ca825813ffc40b0d8c980e8deda00e43884685bfd123092b2d9fbdd3a9d224764736f6c634300081e0033","linkReferences":{}},"methodIdentifiers":{"approve(address,uint256)":"095ea7b3","balanceOf(address)":"70a08231","getApproved(uint256)":"081812fc","getScore(address)":"d47875d0","hasSbt(address)":"87b605a5","isApprovedForAll(address,address)":"e985e9c5","issueScore(address,uint256)":"871ec6c0","locked(uint256)":"b45a3c0e","name()":"06fdde03","owner()":"8da5cb5b","ownerOf(uint256)":"6352211e","renounceOwnership()":"715018a6","revokeScore(address)":"256b79e9","safeTransferFrom(address,address,uint256)":"42842e0e","safeTransferFrom(address,address,uint256,bytes)":"b88d4fde","scores(address)":"76dd110f","setApprovalForAll(address,bool)":"a22cb465","supportsInterface(bytes4)":"01ffc9a7","symbol()":"95d89b41","tokenIdOf(address)":"773c02d4","tokenURI(uint256)":"c87b56dd","transferFrom(address,address,uint256)":"23b872dd","transferOwnership(address)":"f2fde38b"},"id":26}