{"abi":[{"type":"constructor","inputs":[{"name":"_stablecoin","type":"address","internalType":"contract IERC20"},{"name":"initialOwner","type":"address","internalType":"address"}],"stateMutability":"nonpayable"},{"type":"function","name":"STABLECOIN","inputs":[],"outputs":[{"name":"","type":"address","internalType":"contract IERC20"}],"stateMutability":"view"},{"type":"function","name":"availableCredit","inputs":[{"name":"borrower","type":"address","internalType":"address"}],"outputs":[{"name":"","type":"uint256","internalType":"uint256"}],"stateMutability":"view"},{"type":"function","name":"closeCreditLine","inputs":[{"name":"borrower","type":"address","internalType":"address"}],"outputs":[],"stateMutability":"nonpayable"},{"type":"function","name":"createCreditLine","inputs":[{"name":"borrower","type":"address","internalType":"address"},{"name":"limit","type":"uint256","internalType":"uint256"},{"name":"interestRate","type":"uint256","internalType":"uint256"}],"outputs":[],"stateMutability":"nonpayable"},{"type":"function","name":"creditLines","inputs":[{"name":"","type":"address","internalType":"address"}],"outputs":[{"name":"limit","type":"uint256","internalType":"uint256"},{"name":"drawn","type":"uint256","internalType":"uint256"},{"name":"interestRate","type":"uint256","internalType":"uint256"},{"name":"lastDrawnTime","type":"uint256","internalType":"uint256"},{"name":"active","type":"bool","internalType":"bool"}],"stateMutability":"view"},{"type":"function","name":"draw","inputs":[{"name":"borrower","type":"address","internalType":"address"},{"name":"amount","type":"uint256","internalType":"uint256"}],"outputs":[],"stateMutability":"nonpayable"},{"type":"function","name":"owner","inputs":[],"outputs":[{"name":"","type":"address","internalType":"address"}],"stateMutability":"view"},{"type":"function","name":"renounceOwnership","inputs":[],"outputs":[],"stateMutability":"nonpayable"},{"type":"function","name":"repay","inputs":[{"name":"borrower","type":"address","internalType":"address"},{"name":"amount","type":"uint256","internalType":"uint256"}],"outputs":[],"stateMutability":"nonpayable"},{"type":"function","name":"transferOwnership","inputs":[{"name":"newOwner","type":"address","internalType":"address"}],"outputs":[],"stateMutability":"nonpayable"},{"type":"event","name":"CreditDrawn","inputs":[{"name":"borrower","type":"address","indexed":true,"internalType":"address"},{"name":"amount","type":"uint256","indexed":false,"internalType":"uint256"}],"anonymous":false},{"type":"event","name":"CreditLineClosed","inputs":[{"name":"borrower","type":"address","indexed":true,"internalType":"address"}],"anonymous":false},{"type":"event","name":"CreditLineCreated","inputs":[{"name":"borrower","type":"address","indexed":true,"internalType":"address"},{"name":"limit","type":"uint256","indexed":false,"internalType":"uint256"},{"name":"interestRate","type":"uint256","indexed":false,"internalType":"uint256"}],"anonymous":false},{"type":"event","name":"CreditRepaid","inputs":[{"name":"borrower","type":"address","indexed":true,"internalType":"address"},{"name":"amount","type":"uint256","indexed":false,"internalType":"uint256"}],"anonymous":false},{"type":"event","name":"OwnershipTransferred","inputs":[{"name":"previousOwner","type":"address","indexed":true,"internalType":"address"},{"name":"newOwner","type":"address","indexed":true,"internalType":"address"}],"anonymous":false},{"type":"error","name":"OwnableInvalidOwner","inputs":[{"name":"owner","type":"address","internalType":"address"}]},{"type":"error","name":"OwnableUnauthorizedAccount","inputs":[{"name":"account","type":"address","internalType":"address"}]}],"bytecode":{"object":"0x60a060405234801561000f575f5ffd5b506040516116ac3803806116ac83398181016040528101906100319190610247565b805f73ffffffffffffffffffffffffffffffffffffffff168173ffffffffffffffffffffffffffffffffffffffff16036100a2575f6040517f1e4fbdf70000000000000000000000000000000000000000000000000000000081526004016100999190610294565b60405180910390fd5b6100b1816100ed60201b60201c565b508173ffffffffffffffffffffffffffffffffffffffff1660808173ffffffffffffffffffffffffffffffffffffffff168152505050506102ad565b5f5f5f9054906101000a900473ffffffffffffffffffffffffffffffffffffffff169050815f5f6101000a81548173ffffffffffffffffffffffffffffffffffffffff021916908373ffffffffffffffffffffffffffffffffffffffff1602179055508173ffffffffffffffffffffffffffffffffffffffff168173ffffffffffffffffffffffffffffffffffffffff167f8be0079c531659141344cd1fd0a4f28419497f9722a3daafe3b4186f6b6457e060405160405180910390a35050565b5f5ffd5b5f73ffffffffffffffffffffffffffffffffffffffff82169050919050565b5f6101db826101b2565b9050919050565b5f6101ec826101d1565b9050919050565b6101fc816101e2565b8114610206575f5ffd5b50565b5f81519050610217816101f3565b92915050565b610226816101d1565b8114610230575f5ffd5b50565b5f815190506102418161021d565b92915050565b5f5f6040838503121561025d5761025c6101ae565b5b5f61026a85828601610209565b925050602061027b85828601610233565b9150509250929050565b61028e816101d1565b82525050565b5f6020820190506102a75f830184610285565b92915050565b6080516113d96102d35f395f818161044e015281816106c10152610a7a01526113d95ff3fe608060405234801561000f575f5ffd5b506004361061009c575f3560e01c80636c47375c116100645780636c47375c14610140578063715018a6146101745780638da5cb5b1461017e57806393a397761461019c578063f2fde38b146101ba5761009c565b80630a9f9a14146100a057806322867d78146100bc5780634a03707c146100d85780635290e1f4146100f45780635886216f14610110575b5f5ffd5b6100ba60048036038101906100b59190610ccd565b6101d6565b005b6100d660048036038101906100d19190610d2b565b610316565b005b6100f260048036038101906100ed9190610d2b565b61057b565b005b61010e60048036038101906101099190610d69565b6107ec565b005b61012a60048036038101906101259190610ccd565b610985565b6040516101379190610dc8565b60405180910390f35b61015a60048036038101906101559190610ccd565b610a00565b60405161016b959493929190610dfb565b60405180910390f35b61017c610a3e565b005b610186610a51565b6040516101939190610e5b565b60405180910390f35b6101a4610a78565b6040516101b19190610ecf565b60405180910390f35b6101d460048036038101906101cf9190610ccd565b610a9c565b005b6101de610b20565b5f60015f8373ffffffffffffffffffffffffffffffffffffffff1673ffffffffffffffffffffffffffffffffffffffff1681526020019081526020015f209050806004015f9054906101000a900460ff1661026e576040517f08c379a000000000000000000000000000000000000000000000000000000000815260040161026590610f42565b60405180910390fd5b5f8160010154146102b4576040517f08c379a00000000000000000000000000000000000000000000000000000000081526004016102ab90610faa565b60405180910390fd5b5f816004015f6101000a81548160ff0219169083151502179055508173ffffffffffffffffffffffffffffffffffffffff167fab2f20b0856127f9f4fcd8c6c451cb0dabac850695f6e65dcd1fdcb533a3662560405160405180910390a25050565b60015f8373ffffffffffffffffffffffffffffffffffffffff1673ffffffffffffffffffffffffffffffffffffffff1681526020019081526020015f206004015f9054906101000a900460ff166103a2576040517f08c379a000000000000000000000000000000000000000000000000000000000815260040161039990611012565b60405180910390fd5b5f60015f8473ffffffffffffffffffffffffffffffffffffffff1673ffffffffffffffffffffffffffffffffffffffff1681526020019081526020015f2090508060010154821115610429576040517f08c379a00000000000000000000000000000000000000000000000000000000081526004016104209061107a565b60405180910390fd5b81816001015f82825461043c91906110c5565b925050819055504281600301819055507f000000000000000000000000000000000000000000000000000000000000000073ffffffffffffffffffffffffffffffffffffffff166323b872dd3330856040518463ffffffff1660e01b81526004016104a9939291906110f8565b6020604051808303815f875af11580156104c5573d5f5f3e3d5ffd5b505050506040513d601f19601f820116820180604052508101906104e99190611157565b610528576040517f08c379a000000000000000000000000000000000000000000000000000000000815260040161051f906111cc565b60405180910390fd5b8273ffffffffffffffffffffffffffffffffffffffff167fed55a07b9c8cf631d4a3a7785bca7730c88c45fac4085088627cf909c6250ea98360405161056e9190610dc8565b60405180910390a2505050565b60015f8373ffffffffffffffffffffffffffffffffffffffff1673ffffffffffffffffffffffffffffffffffffffff1681526020019081526020015f206004015f9054906101000a900460ff16610607576040517f08c379a00000000000000000000000000000000000000000000000000000000081526004016105fe90611012565b60405180910390fd5b5f60015f8473ffffffffffffffffffffffffffffffffffffffff1673ffffffffffffffffffffffffffffffffffffffff1681526020019081526020015f209050805f015481600101548361065b91906111ea565b111561069c576040517f08c379a000000000000000000000000000000000000000000000000000000000815260040161069390611267565b60405180910390fd5b81816001015f8282546106af91906111ea565b925050819055504281600301819055507f000000000000000000000000000000000000000000000000000000000000000073ffffffffffffffffffffffffffffffffffffffff1663a9059cbb84846040518363ffffffff1660e01b815260040161071a929190611285565b6020604051808303815f875af1158015610736573d5f5f3e3d5ffd5b505050506040513d601f19601f8201168201806040525081019061075a9190611157565b610799576040517f08c379a0000000000000000000000000000000000000000000000000000000008152600401610790906112f6565b60405180910390fd5b8273ffffffffffffffffffffffffffffffffffffffff167f90a48c3c90715b3d2a82384389844a2ecec20741b00edd39ff4d341f1d8d42e9836040516107df9190610dc8565b60405180910390a2505050565b6107f4610b20565b60015f8473ffffffffffffffffffffffffffffffffffffffff1673ffffffffffffffffffffffffffffffffffffffff1681526020019081526020015f206004015f9054906101000a900460ff1615610881576040517f08c379a00000000000000000000000000000000000000000000000000000000081526004016108789061135e565b60405180910390fd5b6040518060a001604052808381526020015f81526020018281526020014281526020016001151581525060015f8573ffffffffffffffffffffffffffffffffffffffff1673ffffffffffffffffffffffffffffffffffffffff1681526020019081526020015f205f820151815f01556020820151816001015560408201518160020155606082015181600301556080820151816004015f6101000a81548160ff0219169083151502179055509050508273ffffffffffffffffffffffffffffffffffffffff167f119215ab950f5a5c351e2474c28710ce05498ef4df0215430409825180a111b3838360405161097892919061137c565b60405180910390a2505050565b5f5f60015f8473ffffffffffffffffffffffffffffffffffffffff1673ffffffffffffffffffffffffffffffffffffffff1681526020019081526020015f209050806004015f9054906101000a900460ff166109e4575f9150506109fb565b8060010154815f01546109f791906110c5565b9150505b919050565b6001602052805f5260405f205f91509050805f015490806001015490806002015490806003015490806004015f9054906101000a900460ff16905085565b610a46610b20565b610a4f5f610ba7565b565b5f5f5f9054906101000a900473ffffffffffffffffffffffffffffffffffffffff16905090565b7f000000000000000000000000000000000000000000000000000000000000000081565b610aa4610b20565b5f73ffffffffffffffffffffffffffffffffffffffff168173ffffffffffffffffffffffffffffffffffffffff1603610b14575f6040517f1e4fbdf7000000000000000000000000000000000000000000000000000000008152600401610b0b9190610e5b565b60405180910390fd5b610b1d81610ba7565b50565b610b28610c68565b73ffffffffffffffffffffffffffffffffffffffff16610b46610a51565b73ffffffffffffffffffffffffffffffffffffffff1614610ba557610b69610c68565b6040517f118cdaa7000000000000000000000000000000000000000000000000000000008152600401610b9c9190610e5b565b60405180910390fd5b565b5f5f5f9054906101000a900473ffffffffffffffffffffffffffffffffffffffff169050815f5f6101000a81548173ffffffffffffffffffffffffffffffffffffffff021916908373ffffffffffffffffffffffffffffffffffffffff1602179055508173ffffffffffffffffffffffffffffffffffffffff168173ffffffffffffffffffffffffffffffffffffffff167f8be0079c531659141344cd1fd0a4f28419497f9722a3daafe3b4186f6b6457e060405160405180910390a35050565b5f33905090565b5f5ffd5b5f73ffffffffffffffffffffffffffffffffffffffff82169050919050565b5f610c9c82610c73565b9050919050565b610cac81610c92565b8114610cb6575f5ffd5b50565b5f81359050610cc781610ca3565b92915050565b5f60208284031215610ce257610ce1610c6f565b5b5f610cef84828501610cb9565b91505092915050565b5f819050919050565b610d0a81610cf8565b8114610d14575f5ffd5b50565b5f81359050610d2581610d01565b92915050565b5f5f60408385031215610d4157610d40610c6f565b5b5f610d4e85828601610cb9565b9250506020610d5f85828601610d17565b9150509250929050565b5f5f5f60608486031215610d8057610d7f610c6f565b5b5f610d8d86828701610cb9565b9350506020610d9e86828701610d17565b9250506040610daf86828701610d17565b9150509250925092565b610dc281610cf8565b82525050565b5f602082019050610ddb5f830184610db9565b92915050565b5f8115159050919050565b610df581610de1565b82525050565b5f60a082019050610e0e5f830188610db9565b610e1b6020830187610db9565b610e286040830186610db9565b610e356060830185610db9565b610e426080830184610dec565b9695505050505050565b610e5581610c92565b82525050565b5f602082019050610e6e5f830184610e4c565b92915050565b5f819050919050565b5f610e97610e92610e8d84610c73565b610e74565b610c73565b9050919050565b5f610ea882610e7d565b9050919050565b5f610eb982610e9e565b9050919050565b610ec981610eaf565b82525050565b5f602082019050610ee25f830184610ec0565b92915050565b5f82825260208201905092915050565b7f4e6f20616374697665206c696e650000000000000000000000000000000000005f82015250565b5f610f2c600e83610ee8565b9150610f3782610ef8565b602082019050919050565b5f6020820190508181035f830152610f5981610f20565b9050919050565b7f4f75747374616e64696e672064656274206578697374730000000000000000005f82015250565b5f610f94601783610ee8565b9150610f9f82610f60565b602082019050919050565b5f6020820190508181035f830152610fc181610f88565b9050919050565b7f4e6f2061637469766520637265646974206c696e6500000000000000000000005f82015250565b5f610ffc601583610ee8565b915061100782610fc8565b602082019050919050565b5f6020820190508181035f83015261102981610ff0565b9050919050565b7f5265706179696e67206d6f7265207468616e20647261776e00000000000000005f82015250565b5f611064601883610ee8565b915061106f82611030565b602082019050919050565b5f6020820190508181035f83015261109181611058565b9050919050565b7f4e487b71000000000000000000000000000000000000000000000000000000005f52601160045260245ffd5b5f6110cf82610cf8565b91506110da83610cf8565b92508282039050818111156110f2576110f1611098565b5b92915050565b5f60608201905061110b5f830186610e4c565b6111186020830185610e4c565b6111256040830184610db9565b949350505050565b61113681610de1565b8114611140575f5ffd5b50565b5f815190506111518161112d565b92915050565b5f6020828403121561116c5761116b610c6f565b5b5f61117984828501611143565b91505092915050565b7f5472616e7366657246726f6d206661696c6564000000000000000000000000005f82015250565b5f6111b6601383610ee8565b91506111c182611182565b602082019050919050565b5f6020820190508181035f8301526111e3816111aa565b9050919050565b5f6111f482610cf8565b91506111ff83610cf8565b925082820190508082111561121757611216611098565b5b92915050565b7f45786365656473206c696d6974000000000000000000000000000000000000005f82015250565b5f611251600d83610ee8565b915061125c8261121d565b602082019050919050565b5f6020820190508181035f83015261127e81611245565b9050919050565b5f6040820190506112985f830185610e4c565b6112a56020830184610db9565b9392505050565b7f5472616e73666572206661696c656400000000000000000000000000000000005f82015250565b5f6112e0600f83610ee8565b91506112eb826112ac565b602082019050919050565b5f6020820190508181035f83015261130d816112d4565b9050919050565b7f437265646974206c696e652065786973747300000000000000000000000000005f82015250565b5f611348601283610ee8565b915061135382611314565b602082019050919050565b5f6020820190508181035f8301526113758161133c565b9050919050565b5f60408201905061138f5f830185610db9565b61139c6020830184610db9565b939250505056fea2646970667358221220f034808d3e0424d3163dd55085cb2c352022d0739fe0c75e258655a67ad46e2464736f6c634300081e0033","linkReferences":{}},"methodIdentifiers":{"STABLECOIN()":"93a39776","availableCredit(address)":"5886216f","closeCreditLine(address)":"0a9f9a14","createCreditLine(address,uint256,uint256)":"5290e1f4","creditLines(address)":"6c47375c","draw(address,uint256)":"4a03707c","owner()":"8da5cb5b","renounceOwnership()":"715018a6","repay(address,uint256)":"22867d78","transferOwnership(address)":"f2fde38b"},"id":23}