{"abi":[{"type":"constructor","inputs":[{"name":"initialOwner","type":"address","internalType":"address"}],"stateMutability":"nonpayable"},{"type":"function","name":"getScore","inputs":[{"name":"borrower","type":"address","internalType":"address"}],"outputs":[{"name":"value","type":"uint256","internalType":"uint256"},{"name":"timestamp","type":"uint256","internalType":"uint256"},{"name":"valid","type":"bool","internalType":"bool"}],"stateMutability":"view"},{"type":"function","name":"issueScore","inputs":[{"name":"borrower","type":"address","internalType":"address"},{"name":"value","type":"uint256","internalType":"uint256"}],"outputs":[],"stateMutability":"nonpayable"},{"type":"function","name":"owner","inputs":[],"outputs":[{"name":"","type":"address","internalType":"address"}],"stateMutability":"view"},{"type":"function","name":"renounceOwnership","inputs":[],"outputs":[],"stateMutability":"nonpayable"},{"type":"function","name":"revokeScore","inputs":[{"name":"borrower","type":"address","internalType":"address"}],"outputs":[],"stateMutability":"nonpayable"},{"type":"function","name":"scores","inputs":[{"name":"","type":"address","internalType":"address"}],"outputs":[{"name":"value","type":"uint256","internalType":"uint256"},{"name":"timestamp","type":"uint256","internalType":"uint256"},{"name":"valid","type":"bool","internalType":"bool"}],"stateMutability":"view"},{"type":"function","name":"transferOwnership","inputs":[{"name":"newOwner","type":"address","internalType":"address"}],"outputs":[],"stateMutability":"nonpayable"},{"type":"event","name":"OwnershipTransferred","inputs":[{"name":"previousOwner","type":"address","indexed":true,"internalType":"address"},{"name":"newOwner","type":"address","indexed":true,"internalType":"address"}],"anonymous":false},{"type":"event","name":"ScoreIssued","inputs":[{"name":"borrower","type":"address","indexed":true,"internalType":"address"},{"name":"value","type":"uint256","indexed":false,"internalType":"uint256"},{"name":"timestamp","type":"uint256","indexed":false,"internalType":"uint256"}],"anonymous":false},{"type":"event","name":"ScoreRevoked","inputs":[{"name":"borrower","type":"address","indexed":true,"internalType":"address"}],"anonymous":false},{"type":"error","name":"OwnableInvalidOwner","inputs":[{"name":"owner","type":"address","internalType":"address"}]},{"type":"error","name":"OwnableUnauthorizedAccount","inputs":[{"name":"account","type":"address","internalType":"address"}]}],"bytecode":{"object":"0x608060405234801561000f575f5ffd5b506040516109d93803806109d9833981810160405281019061003191906101d7565b805f73ffffffffffffffffffffffffffffffffffffffff168173ffffffffffffffffffffffffffffffffffffffff16036100a2575f6040517f1e4fbdf70000000000000000000000000000000000000000000000000000000081526004016100999190610211565b60405180910390fd5b6100b1816100b860201b60201c565b505061022a565b5f5f5f9054906101000a900473ffffffffffffffffffffffffffffffffffffffff169050815f5f6101000a81548173ffffffffffffffffffffffffffffffffffffffff021916908373ffffffffffffffffffffffffffffffffffffffff1602179055508173ffffffffffffffffffffffffffffffffffffffff168173ffffffffffffffffffffffffffffffffffffffff167f8be0079c531659141344cd1fd0a4f28419497f9722a3daafe3b4186f6b6457e060405160405180910390a35050565b5f5ffd5b5f73ffffffffffffffffffffffffffffffffffffffff82169050919050565b5f6101a68261017d565b9050919050565b6101b68161019c565b81146101c0575f5ffd5b50565b5f815190506101d1816101ad565b92915050565b5f602082840312156101ec576101eb610179565b5b5f6101f9848285016101c3565b91505092915050565b61020b8161019c565b82525050565b5f6020820190506102245f830184610202565b92915050565b6107a2806102375f395ff3fe608060405234801561000f575f5ffd5b506004361061007b575f3560e01c8063871ec6c011610059578063871ec6c0146100d75780638da5cb5b146100f3578063d47875d014610111578063f2fde38b146101435761007b565b8063256b79e91461007f578063715018a61461009b57806376dd110f146100a5575b5f5ffd5b61009960048036038101906100949190610623565b61015f565b005b6100a3610204565b005b6100bf60048036038101906100ba9190610623565b610217565b6040516100ce93929190610680565b60405180910390f35b6100f160048036038101906100ec91906106df565b610249565b005b6100fb610334565b604051610108919061072c565b60405180910390f35b61012b60048036038101906101269190610623565b61035b565b60405161013a93929190610680565b60405180910390f35b61015d60048036038101906101589190610623565b6103f2565b005b610167610476565b5f60015f8373ffffffffffffffffffffffffffffffffffffffff1673ffffffffffffffffffffffffffffffffffffffff1681526020019081526020015f206002015f6101000a81548160ff0219169083151502179055508073ffffffffffffffffffffffffffffffffffffffff167f16df10e89345444e350ded2c87fa62e651db87f81c1b65cda030724286b20dbf60405160405180910390a250565b61020c610476565b6102155f6104fd565b565b6001602052805f5260405f205f91509050805f015490806001015490806002015f9054906101000a900460ff16905083565b610251610476565b60405180606001604052808281526020014281526020016001151581525060015f8473ffffffffffffffffffffffffffffffffffffffff1673ffffffffffffffffffffffffffffffffffffffff1681526020019081526020015f205f820151815f0155602082015181600101556040820151816002015f6101000a81548160ff0219169083151502179055509050508173ffffffffffffffffffffffffffffffffffffffff167f7b66b48c9a6508bcbb6859f97d08e14cc5f5ab435bb4a3079433d3977a2d8e5f8242604051610328929190610745565b60405180910390a25050565b5f5f5f9054906101000a900473ffffffffffffffffffffffffffffffffffffffff16905090565b5f5f5f5f60015f8673ffffffffffffffffffffffffffffffffffffffff1673ffffffffffffffffffffffffffffffffffffffff1681526020019081526020015f206040518060600160405290815f820154815260200160018201548152602001600282015f9054906101000a900460ff1615151515815250509050805f015181602001518260400151935093509350509193909250565b6103fa610476565b5f73ffffffffffffffffffffffffffffffffffffffff168173ffffffffffffffffffffffffffffffffffffffff160361046a575f6040517f1e4fbdf7000000000000000000000000000000000000000000000000000000008152600401610461919061072c565b60405180910390fd5b610473816104fd565b50565b61047e6105be565b73ffffffffffffffffffffffffffffffffffffffff1661049c610334565b73ffffffffffffffffffffffffffffffffffffffff16146104fb576104bf6105be565b6040517f118cdaa70000000000000000000000000000000000000000000000000000000081526004016104f2919061072c565b60405180910390fd5b565b5f5f5f9054906101000a900473ffffffffffffffffffffffffffffffffffffffff169050815f5f6101000a81548173ffffffffffffffffffffffffffffffffffffffff021916908373ffffffffffffffffffffffffffffffffffffffff1602179055508173ffffffffffffffffffffffffffffffffffffffff168173ffffffffffffffffffffffffffffffffffffffff167f8be0079c531659141344cd1fd0a4f28419497f9722a3daafe3b4186f6b6457e060405160405180910390a35050565b5f33905090565b5f5ffd5b5f73ffffffffffffffffffffffffffffffffffffffff82169050919050565b5f6105f2826105c9565b9050919050565b610602816105e8565b811461060c575f5ffd5b50565b5f8135905061061d816105f9565b92915050565b5f60208284031215610638576106376105c5565b5b5f6106458482850161060f565b91505092915050565b5f819050919050565b6106608161064e565b82525050565b5f8115159050919050565b61067a81610666565b82525050565b5f6060820190506106935f830186610657565b6106a06020830185610657565b6106ad6040830184610671565b949350505050565b6106be8161064e565b81146106c8575f5ffd5b50565b5f813590506106d9816106b5565b92915050565b5f5f604083850312156106f5576106f46105c5565b5b5f6107028582860161060f565b9250506020610713858286016106cb565b9150509250929050565b610726816105e8565b82525050565b5f60208201905061073f5f83018461071d565b92915050565b5f6040820190506107585f830185610657565b6107656020830184610657565b939250505056fea26469706673582212204e36bfe33d0b2f65e60f4c0b5c0d4d06a08d227830963670c58cd829dacd572d64736f6c634300081e0033","linkReferences":{}},"methodIdentifiers":{"getScore(address)":"d47875d0","issueScore(address,uint256)":"871ec6c0","owner()":"8da5cb5b","renounceOwnership()":"715018a6","revokeScore(address)":"256b79e9","scores(address)":"76dd110f","transferOwnership(address)":"f2fde38b"},"id":24}