{"abi":[{"type":"constructor","inputs":[{"name":"initialOwner","type":"address","internalType":"address"}],"stateMutability":"nonpayable"},{"type":"function","name":"ARC_USDC_ADDRESS","inputs":[],"outputs":[{"name":"","type":"address","internalType":"address"}],"stateMutability":"view"},{"type":"function","name":"CCTP_DEFAULT_MIN_FINALITY","inputs":[],"outputs":[{"name":"","type":"uint32","internalType":"uint32"}],"stateMutability":"view"},{"type":"function","name":"CCTP_POLYGON_DOMAIN","inputs":[],"outputs":[{"name":"","type":"uint32","internalType":"uint32"}],"stateMutability":"view"},{"type":"function","name":"CCTP_TOKEN_MESSENGER","inputs":[],"outputs":[{"name":"","type":"address","internalType":"address"}],"stateMutability":"view"},{"type":"function","name":"DEPOSIT_LOCK_SECONDS","inputs":[],"outputs":[{"name":"","type":"uint256","internalType":"uint256"}],"stateMutability":"view"},{"type":"function","name":"MIN_SCORE_TO_BORROW","inputs":[],"outputs":[{"name":"","type":"uint256","internalType":"uint256"}],"stateMutability":"view"},{"type":"function","name":"TRUST_MINT_SBT","inputs":[],"outputs":[{"name":"","type":"address","internalType":"address"}],"stateMutability":"view"},{"type":"function","name":"availableLiquidity","inputs":[],"outputs":[{"name":"","type":"uint256","internalType":"uint256"}],"stateMutability":"view"},{"type":"function","name":"banned","inputs":[{"name":"","type":"address","internalType":"address"}],"outputs":[{"name":"","type":"bool","internalType":"bool"}],"stateMutability":"view"},{"type":"function","name":"canOpenLoan","inputs":[{"name":"borrower","type":"address","internalType":"address"},{"name":"principal","type":"uint256","internalType":"uint256"}],"outputs":[{"name":"ok","type":"bool","internalType":"bool"},{"name":"reason","type":"string","internalType":"string"}],"stateMutability":"view"},{"type":"function","name":"checkDefaultAndBan","inputs":[{"name":"borrower","type":"address","internalType":"address"}],"outputs":[],"stateMutability":"nonpayable"},{"type":"function","name":"deposit","inputs":[{"name":"amount","type":"uint256","internalType":"uint256"}],"outputs":[],"stateMutability":"payable"},{"type":"function","name":"depositLockSeconds","inputs":[],"outputs":[{"name":"","type":"uint256","internalType":"uint256"}],"stateMutability":"pure"},{"type":"function","name":"getDeposits","inputs":[{"name":"lender","type":"address","internalType":"address"}],"outputs":[{"name":"","type":"tuple[]","internalType":"struct LendingPool.DepositEntry[]","components":[{"name":"amount","type":"uint128","internalType":"uint128"},{"name":"timestamp","type":"uint64","internalType":"uint64"}]}],"stateMutability":"view"},{"type":"function","name":"getLoan","inputs":[{"name":"borrower","type":"address","internalType":"address"}],"outputs":[{"name":"","type":"tuple","internalType":"struct LendingPool.Loan","components":[{"name":"principal","type":"uint256","internalType":"uint256"},{"name":"outstanding","type":"uint256","internalType":"uint256"},{"name":"startTime","type":"uint256","internalType":"uint256"},{"name":"dueTime","type":"uint256","internalType":"uint256"},{"name":"state","type":"uint8","internalType":"enum LendingPool.LoanState"}]}],"stateMutability":"view"},{"type":"function","name":"isBanned","inputs":[{"name":"borrower","type":"address","internalType":"address"}],"outputs":[{"name":"","type":"bool","internalType":"bool"}],"stateMutability":"view"},{"type":"function","name":"lenderBalance","inputs":[{"name":"lender","type":"address","internalType":"address"}],"outputs":[{"name":"","type":"uint256","internalType":"uint256"}],"stateMutability":"view"},{"type":"function","name":"lenderStatus","inputs":[{"name":"lender","type":"address","internalType":"address"}],"outputs":[{"name":"totalDeposited_","type":"uint256","internalType":"uint256"},{"name":"totalWithdrawn_","type":"uint256","internalType":"uint256"},{"name":"balance","type":"uint256","internalType":"uint256"},{"name":"unlockable","type":"uint256","internalType":"uint256"}],"stateMutability":"view"},{"type":"function","name":"loanStatus","inputs":[{"name":"borrower","type":"address","internalType":"address"}],"outputs":[{"name":"state","type":"uint8","internalType":"enum LendingPool.LoanState"},{"name":"principal","type":"uint256","internalType":"uint256"},{"name":"outstanding","type":"uint256","internalType":"uint256"},{"name":"startTime","type":"uint256","internalType":"uint256"},{"name":"dueTime","type":"uint256","internalType":"uint256"},{"name":"bannedStatus","type":"bool","internalType":"bool"}],"stateMutability":"view"},{"type":"function","name":"loans","inputs":[{"name":"","type":"address","internalType":"address"}],"outputs":[{"name":"principal","type":"uint256","internalType":"uint256"},{"name":"outstanding","type":"uint256","internalType":"uint256"},{"name":"startTime","type":"uint256","internalType":"uint256"},{"name":"dueTime","type":"uint256","internalType":"uint256"},{"name":"state","type":"uint8","internalType":"enum LendingPool.LoanState"}],"stateMutability":"view"},{"type":"function","name":"minScoreToBorrow","inputs":[],"outputs":[{"name":"","type":"uint256","internalType":"uint256"}],"stateMutability":"pure"},{"type":"function","name":"nextWithdrawalIndex","inputs":[{"name":"","type":"address","internalType":"address"}],"outputs":[{"name":"","type":"uint256","internalType":"uint256"}],"stateMutability":"view"},{"type":"function","name":"openLoan","inputs":[{"name":"borrower","type":"address","internalType":"address"},{"name":"principal","type":"uint256","internalType":"uint256"},{"name":"termSeconds","type":"uint256","internalType":"uint256"}],"outputs":[],"stateMutability":"nonpayable"},{"type":"function","name":"owner","inputs":[],"outputs":[{"name":"","type":"address","internalType":"address"}],"stateMutability":"view"},{"type":"function","name":"prepareCctpBridge","inputs":[{"name":"amount","type":"uint256","internalType":"uint256"}],"outputs":[{"name":"ownerWallet","type":"address","internalType":"address"}],"stateMutability":"nonpayable"},{"type":"function","name":"previewWithdraw","inputs":[{"name":"lender","type":"address","internalType":"address"}],"outputs":[{"name":"unlockable","type":"uint256","internalType":"uint256"}],"stateMutability":"view"},{"type":"function","name":"renounceOwnership","inputs":[],"outputs":[],"stateMutability":"nonpayable"},{"type":"function","name":"repay","inputs":[{"name":"amount","type":"uint256","internalType":"uint256"}],"outputs":[],"stateMutability":"payable"},{"type":"function","name":"totalDeposited","inputs":[{"name":"","type":"address","internalType":"address"}],"outputs":[{"name":"","type":"uint256","internalType":"uint256"}],"stateMutability":"view"},{"type":"function","name":"totalDeposits","inputs":[],"outputs":[{"name":"","type":"uint256","internalType":"uint256"}],"stateMutability":"view"},{"type":"function","name":"totalWithdrawn","inputs":[{"name":"","type":"address","internalType":"address"}],"outputs":[{"name":"","type":"uint256","internalType":"uint256"}],"stateMutability":"view"},{"type":"function","name":"transferOwnership","inputs":[{"name":"newOwner","type":"address","internalType":"address"}],"outputs":[],"stateMutability":"nonpayable"},{"type":"function","name":"transferUsdcOnArc","inputs":[{"name":"arcRecipient","type":"address","internalType":"address"},{"name":"amount","type":"uint256","internalType":"uint256"}],"outputs":[],"stateMutability":"nonpayable"},{"type":"function","name":"trustMintSbt","inputs":[],"outputs":[{"name":"","type":"address","internalType":"address"}],"stateMutability":"pure"},{"type":"function","name":"unban","inputs":[{"name":"borrower","type":"address","internalType":"address"}],"outputs":[],"stateMutability":"nonpayable"},{"type":"function","name":"withdraw","inputs":[{"name":"amount","type":"uint256","internalType":"uint256"}],"outputs":[],"stateMutability":"nonpayable"},{"type":"event","name":"ArcUsdcTransferred","inputs":[{"name":"recipient","type":"address","indexed":true,"internalType":"address"},{"name":"amount","type":"uint256","indexed":false,"internalType":"uint256"}],"anonymous":false},{"type":"event","name":"BorrowerBanned","inputs":[{"name":"borrower","type":"address","indexed":true,"internalType":"address"}],"anonymous":false},{"type":"event","name":"BorrowerUnbanned","inputs":[{"name":"borrower","type":"address","indexed":true,"internalType":"address"}],"anonymous":false},{"type":"event","name":"CctpBridgePrepared","inputs":[{"name":"ownerWallet","type":"address","indexed":true,"internalType":"address"},{"name":"amount","type":"uint256","indexed":false,"internalType":"uint256"}],"anonymous":false},{"type":"event","name":"Deposited","inputs":[{"name":"lender","type":"address","indexed":true,"internalType":"address"},{"name":"amount","type":"uint256","indexed":false,"internalType":"uint256"},{"name":"timestamp","type":"uint256","indexed":false,"internalType":"uint256"}],"anonymous":false},{"type":"event","name":"LoanActionEvaluated","inputs":[{"name":"action","type":"string","indexed":false,"internalType":"string"},{"name":"borrower","type":"address","indexed":true,"internalType":"address"},{"name":"success","type":"bool","indexed":false,"internalType":"bool"},{"name":"reason","type":"string","indexed":false,"internalType":"string"},{"name":"state","type":"uint8","indexed":false,"internalType":"enum LendingPool.LoanState"},{"name":"principal","type":"uint256","indexed":false,"internalType":"uint256"},{"name":"outstanding","type":"uint256","indexed":false,"internalType":"uint256"},{"name":"dueTime","type":"uint256","indexed":false,"internalType":"uint256"},{"name":"banned","type":"bool","indexed":false,"internalType":"bool"}],"anonymous":false},{"type":"event","name":"LoanOpened","inputs":[{"name":"borrower","type":"address","indexed":true,"internalType":"address"},{"name":"principal","type":"uint256","indexed":false,"internalType":"uint256"},{"name":"startTime","type":"uint256","indexed":false,"internalType":"uint256"},{"name":"dueTime","type":"uint256","indexed":false,"internalType":"uint256"}],"anonymous":false},{"type":"event","name":"LoanRepaid","inputs":[{"name":"borrower","type":"address","indexed":true,"internalType":"address"},{"name":"amount","type":"uint256","indexed":false,"internalType":"uint256"},{"name":"remaining","type":"uint256","indexed":false,"internalType":"uint256"}],"anonymous":false},{"type":"event","name":"OwnershipTransferred","inputs":[{"name":"previousOwner","type":"address","indexed":true,"internalType":"address"},{"name":"newOwner","type":"address","indexed":true,"internalType":"address"}],"anonymous":false},{"type":"event","name":"PoolActionEvaluated","inputs":[{"name":"action","type":"string","indexed":false,"internalType":"string"},{"name":"account","type":"address","indexed":true,"internalType":"address"},{"name":"success","type":"bool","indexed":false,"internalType":"bool"},{"name":"reason","type":"string","indexed":false,"internalType":"string"},{"name":"amount","type":"uint256","indexed":false,"internalType":"uint256"},{"name":"poolBalance","type":"uint256","indexed":false,"internalType":"uint256"},{"name":"lenderUnlockable","type":"uint256","indexed":false,"internalType":"uint256"}],"anonymous":false},{"type":"event","name":"Withdrawn","inputs":[{"name":"lender","type":"address","indexed":true,"internalType":"address"},{"name":"amount","type":"uint256","indexed":false,"internalType":"uint256"}],"anonymous":false},{"type":"error","name":"BridgeActionRejected","inputs":[{"name":"reason","type":"string","internalType":"string"}]},{"type":"error","name":"GovernanceActionRejected","inputs":[{"name":"reason","type":"string","internalType":"string"}]},{"type":"error","name":"LoanActionRejected","inputs":[{"name":"reason","type":"string","internalType":"string"}]},{"type":"error","name":"OwnableInvalidOwner","inputs":[{"name":"owner","type":"address","internalType":"address"}]},{"type":"error","name":"OwnableUnauthorizedAccount","inputs":[{"name":"account","type":"address","internalType":"address"}]},{"type":"error","name":"PoolActionRejected","inputs":[{"name":"reason","type":"string","internalType":"string"}]},{"type":"error","name":"ReentrancyGuardReentrantCall","inputs":[]},{"type":"error","name":"SafeCastOverflowedUintDowncast","inputs":[{"name":"bits","type":"uint8","internalType":"uint8"},{"name":"value","type":"uint256","internalType":"uint256"}]},{"type":"error","name":"SafeERC20FailedOperation","inputs":[{"name":"token","type":"address","internalType":"address"}]}],"bytecode":{"object":"0x608060405234801561000f575f5ffd5b506040516146fb3803806146fb8339818101604052810190610031919061022d565b805f73ffffffffffffffffffffffffffffffffffffffff168173ffffffffffffffffffffffffffffffffffffffff16036100a2575f6040517f1e4fbdf70000000000000000000000000000000000000000000000000000000081526004016100999190610267565b60405180910390fd5b6100b1816100dc60201b60201c565b5060016100d06100c561019d60201b60201c565b6101c660201b60201c565b5f018190555050610280565b5f5f5f9054906101000a900473ffffffffffffffffffffffffffffffffffffffff169050815f5f6101000a81548173ffffffffffffffffffffffffffffffffffffffff021916908373ffffffffffffffffffffffffffffffffffffffff1602179055508173ffffffffffffffffffffffffffffffffffffffff168173ffffffffffffffffffffffffffffffffffffffff167f8be0079c531659141344cd1fd0a4f28419497f9722a3daafe3b4186f6b6457e060405160405180910390a35050565b5f7f9b779b17422d0df92223018b32b4d1fa46e071723d6817e2486d003becc55f005f1b905090565b5f819050919050565b5f5ffd5b5f73ffffffffffffffffffffffffffffffffffffffff82169050919050565b5f6101fc826101d3565b9050919050565b61020c816101f2565b8114610216575f5ffd5b50565b5f8151905061022781610203565b92915050565b5f60208284031215610242576102416101cf565b5b5f61024f84828501610219565b91505092915050565b610261816101f2565b82525050565b5f60208201905061027a5f830184610258565b92915050565b61446e8061028d5f395ff3fe60806040526004361061020e575f3560e01c80637a6a0bcb116101175780639c8d83bb1161009f578063c0d768351161006e578063c0d76835146107e2578063ca8b50ae1461080c578063cbb923f414610836578063f2fde38b14610860578063f3b4d40a146108885761020e565b80639c8d83bb14610738578063a02cae4114610774578063b6b55f251461079e578063b9f14557146107ba5761020e565b80638da5cb5b116100e65780638da5cb5b1461062d578063907086011461065757806394f649dd1461067f578063958e092a146106bb57806397f735d5146106fc5761020e565b80637a6a0bcb146105855780637d882097146105af5780637d9be033146105d957806382ec62d1146106035761020e565b8063337390d21161019a5780635305548111610169578063530554811461048d578063686b46ec146104c9578063715018a61461050557806373b4086b1461051b578063743753591461055b5761020e565b8063337390d2146103e1578063371fd8e61461040b5780633b35269c146104275780634d8a8714146104635761020e565b8063178d11c7116101e1578063178d11c7146102db578063209468af14610317578063275972ca146103415780632e1a7d4d1461037d57806333481fc9146103a55761020e565b8063091d7d6c146102125780630a64143a1461023a5780631340ead91461027657806316a5fd6f1461029e575b5f5ffd5b34801561021d575f5ffd5b50610238600480360381019061023391906139e4565b6108c7565b005b348015610245575f5ffd5b50610260600480360381019061025b9190613a22565b610b84565b60405161026d9190613a5c565b60405180910390f35b348015610281575f5ffd5b5061029c60048036038101906102979190613a22565b610b99565b005b3480156102a9575f5ffd5b506102c460048036038101906102bf91906139e4565b610fd5565b6040516102d2929190613aff565b60405180910390f35b3480156102e6575f5ffd5b5061030160048036038101906102fc9190613b2d565b610fef565b60405161030e9190613b67565b60405180910390f35b348015610322575f5ffd5b5061032b6112b8565b6040516103389190613b67565b60405180910390f35b34801561034c575f5ffd5b5061036760048036038101906103629190613a22565b6112d0565b6040516103749190613a5c565b60405180910390f35b348015610388575f5ffd5b506103a3600480360381019061039e9190613b2d565b61135e565b005b3480156103b0575f5ffd5b506103cb60048036038101906103c69190613a22565b611a43565b6040516103d89190613c68565b60405180910390f35b3480156103ec575f5ffd5b506103f5611afb565b6040516104029190613c9f565b60405180910390f35b61042560048036038101906104209190613b2d565b611aff565b005b348015610432575f5ffd5b5061044d60048036038101906104489190613a22565b611efe565b60405161045a9190613a5c565b60405180910390f35b34801561046e575f5ffd5b50610477612099565b6040516104849190613a5c565b60405180910390f35b348015610498575f5ffd5b506104b360048036038101906104ae9190613a22565b61209f565b6040516104c09190613a5c565b60405180910390f35b3480156104d4575f5ffd5b506104ef60048036038101906104ea9190613a22565b6120b4565b6040516104fc9190613a5c565b60405180910390f35b348015610510575f5ffd5b506105196120c9565b005b348015610526575f5ffd5b50610541600480360381019061053c9190613a22565b6120dc565b604051610552959493929190613cc7565b60405180910390f35b348015610566575f5ffd5b5061056f61211a565b60405161057c9190613a5c565b60405180910390f35b348015610590575f5ffd5b50610599612121565b6040516105a69190613a5c565b60405180910390f35b3480156105ba575f5ffd5b506105c3612126565b6040516105d09190613a5c565b60405180910390f35b3480156105e4575f5ffd5b506105ed61212c565b6040516105fa9190613a5c565b60405180910390f35b34801561060e575f5ffd5b50610617612134565b6040516106249190613a5c565b60405180910390f35b348015610638575f5ffd5b5061064161213d565b60405161064e9190613b67565b60405180910390f35b348015610662575f5ffd5b5061067d60048036038101906106789190613d18565b612164565b005b34801561068a575f5ffd5b506106a560048036038101906106a09190613a22565b612478565b6040516106b29190613e89565b60405180910390f35b3480156106c6575f5ffd5b506106e160048036038101906106dc9190613a22565b612586565b6040516106f396959493929190613ea9565b60405180910390f35b348015610707575f5ffd5b50610722600480360381019061071d9190613a22565b612650565b60405161072f9190613f08565b60405180910390f35b348015610743575f5ffd5b5061075e60048036038101906107599190613a22565b6126a2565b60405161076b9190613f08565b60405180910390f35b34801561077f575f5ffd5b506107886126bf565b6040516107959190613b67565b60405180910390f35b6107b860048036038101906107b39190613b2d565b6126d7565b005b3480156107c5575f5ffd5b506107e060048036038101906107db9190613a22565b612ac0565b005b3480156107ed575f5ffd5b506107f6612d0f565b6040516108039190613b67565b60405180910390f35b348015610817575f5ffd5b50610820612d2a565b60405161082d9190613c9f565b60405180910390f35b348015610841575f5ffd5b5061084a612d2f565b6040516108579190613b67565b60405180910390f35b34801561086b575f5ffd5b5061088660048036038101906108819190613a22565b612d47565b005b348015610893575f5ffd5b506108ae60048036038101906108a99190613a22565b612dcb565b6040516108be9493929190613f21565b60405180910390f35b6108cf612e6f565b6108d7612ef6565b5f73ffffffffffffffffffffffffffffffffffffffff168273ffffffffffffffffffffffffffffffffffffffff160361097c576040518060400160405280600e81526020017f524543495049454e545f5a45524f0000000000000000000000000000000000008152506040517ff9137f520000000000000000000000000000000000000000000000000000000081526004016109739190613f64565b60405180910390fd5b5f81036109f5576040518060400160405280601081526020017f555344435f414d4f554e545f5a45524f000000000000000000000000000000008152506040517ff9137f520000000000000000000000000000000000000000000000000000000081526004016109ec9190613f64565b60405180910390fd5b5f7336000000000000000000000000000000000000009050818173ffffffffffffffffffffffffffffffffffffffff166370a08231306040518263ffffffff1660e01b8152600401610a479190613b67565b602060405180830381865afa158015610a62573d5f5f3e3d5ffd5b505050506040513d601f19601f82011682018060405250810190610a869190613f98565b1015610afe576040518060400160405280600c81526020017f555344435f42414c414e434500000000000000000000000000000000000000008152506040517ff9137f52000000000000000000000000000000000000000000000000000000008152600401610af59190613f64565b60405180910390fd5b610b2983838373ffffffffffffffffffffffffffffffffffffffff16612f189092919063ffffffff16565b8273ffffffffffffffffffffffffffffffffffffffff167f68bc5e9a50d51af3e8fc839ff74671e3bdf4d6691efbd543041da358c53e7c0883604051610b6f9190613a5c565b60405180910390a250610b80612f6b565b5050565b6004602052805f5260405f205f915090505481565b5f60065f8373ffffffffffffffffffffffffffffffffffffffff1673ffffffffffffffffffffffffffffffffffffffff1681526020019081526020015f20905060016003811115610bed57610bec613b8f565b5b816004015f9054906101000a900460ff166003811115610c1057610c0f613b8f565b5b14610c9157610c8b6040518060400160405280600d81526020017f434845434b5f44454641554c5400000000000000000000000000000000000000815250835f6040518060400160405280600e81526020017f4e4f5f4143544956455f4c4f414e000000000000000000000000000000000000815250612f85565b50610fd2565b80600301544211610d1857610d126040518060400160405280600d81526020017f434845434b5f44454641554c5400000000000000000000000000000000000000815250835f6040518060400160405280600b81526020017f4e4f545f4f564552445545000000000000000000000000000000000000000000815250612f85565b50610fd2565b5f816001015403610dcb576002816004015f6101000a81548160ff02191690836003811115610d4a57610d49613b8f565b5b0217905550610dc56040518060400160405280600d81526020017f434845434b5f44454641554c5400000000000000000000000000000000000000815250835f6040518060400160405280600b81526020017f4c4f414e5f524550414944000000000000000000000000000000000000000000815250612f85565b50610fd2565b60075f8373ffffffffffffffffffffffffffffffffffffffff1673ffffffffffffffffffffffffffffffffffffffff1681526020019081526020015f205f9054906101000a900460ff16610f5957600160075f8473ffffffffffffffffffffffffffffffffffffffff1673ffffffffffffffffffffffffffffffffffffffff1681526020019081526020015f205f6101000a81548160ff0219169083151502179055506003816004015f6101000a81548160ff02191690836003811115610e9557610e94613b8f565b5b02179055508173ffffffffffffffffffffffffffffffffffffffff167f4a1b89b9856d002a69bca5a5f1c8d9fdcc3b3cf87ce1ef703f9ce2318c60f19560405160405180910390a2610f546040518060400160405280600d81526020017f434845434b5f44454641554c54000000000000000000000000000000000000008152508360016040518060400160405280600e81526020017f4c4f414e5f44454641554c544544000000000000000000000000000000000000815250612f85565b610fd0565b610fcf6040518060400160405280600d81526020017f434845434b5f44454641554c5400000000000000000000000000000000000000815250835f6040518060400160405280600e81526020017f414c52454144595f42414e4e4544000000000000000000000000000000000000815250612f85565b5b505b50565b5f6060610fe4848460016130ec565b915091509250929050565b5f610ff8612e6f565b611000612ef6565b5f8203611079576040518060400160405280601081526020017f555344435f414d4f554e545f5a45524f000000000000000000000000000000008152506040517ff9137f520000000000000000000000000000000000000000000000000000000081526004016110709190613f64565b60405180910390fd5b61108161213d565b90505f73ffffffffffffffffffffffffffffffffffffffff168173ffffffffffffffffffffffffffffffffffffffff1603611128576040518060400160405280600a81526020017f4f574e45525f5a45524f000000000000000000000000000000000000000000008152506040517ff9137f5200000000000000000000000000000000000000000000000000000000815260040161111f9190613f64565b60405180910390fd5b5f7336000000000000000000000000000000000000009050828173ffffffffffffffffffffffffffffffffffffffff166370a08231306040518263ffffffff1660e01b815260040161117a9190613b67565b602060405180830381865afa158015611195573d5f5f3e3d5ffd5b505050506040513d601f19601f820116820180604052508101906111b99190613f98565b1015611231576040518060400160405280600c81526020017f555344435f42414c414e434500000000000000000000000000000000000000008152506040517ff9137f520000000000000000000000000000000000000000000000000000000081526004016112289190613f64565b60405180910390fd5b61125c82848373ffffffffffffffffffffffffffffffffffffffff16612f189092919063ffffffff16565b8173ffffffffffffffffffffffffffffffffffffffff167f9c57264d855e0b55d36387f243c372f6c633b25ec6dca10614e48134bad317f3846040516112a29190613a5c565b60405180910390a2506112b3612f6b565b919050565b73c570abb715c7e51801ae7dea5b08af53c6718bad81565b5f60045f8373ffffffffffffffffffffffffffffffffffffffff1673ffffffffffffffffffffffffffffffffffffffff1681526020019081526020015f205460035f8473ffffffffffffffffffffffffffffffffffffffff1673ffffffffffffffffffffffffffffffffffffffff1681526020019081526020015f20546113579190613ff0565b9050919050565b611366612ef6565b5f81036113e4576113e36040518060400160405280600881526020017f5749544844524157000000000000000000000000000000000000000000000000815250336040518060400160405280600b81526020017f414d4f554e545f5a45524f0000000000000000000000000000000000000000008152508461359c565b5b5f8190505f60025f3373ffffffffffffffffffffffffffffffffffffffff1673ffffffffffffffffffffffffffffffffffffffff1681526020019081526020015f205490505f60015f3373ffffffffffffffffffffffffffffffffffffffff1673ffffffffffffffffffffffffffffffffffffffff1681526020019081526020015f2090505b5f83111561175957808054905082106114f4576114f36040518060400160405280600881526020017f5749544844524157000000000000000000000000000000000000000000000000815250336040518060400160405280601981526020017f57495448445241575f455843454544535f4445504f53495453000000000000008152508761359c565b5b5f81838154811061150857611507614023565b5b905f5260205f200190505f815f015f9054906101000a90046fffffffffffffffffffffffffffffffff166fffffffffffffffffffffffffffffffff16036115c0576115bf6040518060400160405280600881526020017f5749544844524157000000000000000000000000000000000000000000000000815250336040518060400160405280601681526020017f4445504f5349545f454e5452595f4445504c45544544000000000000000000008152508861359c565b5b6001815f0160109054906101000a900467ffffffffffffffff1667ffffffffffffffff166115ee9190614050565b42101561166c5761166b6040518060400160405280600881526020017f5749544844524157000000000000000000000000000000000000000000000000815250336040518060400160405280600f81526020017f57495448445241575f4c4f434b454400000000000000000000000000000000008152508861359c565b5b5f815f015f9054906101000a90046fffffffffffffffffffffffffffffffff166fffffffffffffffffffffffffffffffff169050848111156116fc576116bc85826116b79190613ff0565b6135e6565b825f015f6101000a8154816fffffffffffffffffffffffffffffffff02191690836fffffffffffffffffffffffffffffffff1602179055505f9450611752565b80856117089190613ff0565b94505f825f015f6101000a8154816fffffffffffffffffffffffffffffffff02191690836fffffffffffffffffffffffffffffffff160217905550838061174e90614083565b9450505b505061146a565b8160025f3373ffffffffffffffffffffffffffffffffffffffff1673ffffffffffffffffffffffffffffffffffffffff1681526020019081526020015f20819055508360045f3373ffffffffffffffffffffffffffffffffffffffff1673ffffffffffffffffffffffffffffffffffffffff1681526020019081526020015f205f8282546117e79190614050565b925050819055508360055f8282546117ff9190613ff0565b925050819055505f47905084811015611889576118886040518060400160405280600881526020017f5749544844524157000000000000000000000000000000000000000000000000815250336040518060400160405280601b81526020017f494e53554646494349454e545f504f4f4c5f4c495155494449545900000000008152508861359c565b5b5f3373ffffffffffffffffffffffffffffffffffffffff16866040516118ae906140f7565b5f6040518083038185875af1925050503d805f81146118e8576040519150601f19603f3d011682016040523d82523d5f602084013e6118ed565b606091505b505090508061196d5761196c6040518060400160405280600881526020017f5749544844524157000000000000000000000000000000000000000000000000815250336040518060400160405280601681526020017f4e41544956455f5452414e534645525f4641494c4544000000000000000000008152508961359c565b5b3373ffffffffffffffffffffffffffffffffffffffff167f7084f5476618d8e60b11ef0d7d3f06914655adb8793e28ff7f018d4c76d505d5876040516119b39190613a5c565b60405180910390a2611a336040518060400160405280600881526020017f57495448445241570000000000000000000000000000000000000000000000008152503360016040518060400160405280600281526020017f4f4b0000000000000000000000000000000000000000000000000000000000008152508a613649565b5050505050611a40612f6b565b50565b611a4b613917565b60065f8373ffffffffffffffffffffffffffffffffffffffff1673ffffffffffffffffffffffffffffffffffffffff1681526020019081526020015f206040518060a00160405290815f8201548152602001600182015481526020016002820154815260200160038201548152602001600482015f9054906101000a900460ff166003811115611ade57611add613b8f565b5b6003811115611af057611aef613b8f565b5b815250509050919050565b5f81565b611b07612ef6565b5f60065f3373ffffffffffffffffffffffffffffffffffffffff1673ffffffffffffffffffffffffffffffffffffffff1681526020019081526020015f20905060016003811115611b5b57611b5a613b8f565b5b816004015f9054906101000a900460ff166003811115611b7e57611b7d613b8f565b5b14611bf957611bf86040518060400160405280600581526020017f5245504159000000000000000000000000000000000000000000000000000000815250336040518060400160405280600e81526020017f4e4f5f4143544956455f4c4f414e0000000000000000000000000000000000008152506136ba565b5b5f8203611c7657611c756040518060400160405280600581526020017f5245504159000000000000000000000000000000000000000000000000000000815250336040518060400160405280600b81526020017f414d4f554e545f5a45524f0000000000000000000000000000000000000000008152506136ba565b5b813414611cf357611cf26040518060400160405280600581526020017f5245504159000000000000000000000000000000000000000000000000000000815250336040518060400160405280600e81526020017f56414c55455f4d49534d415443480000000000000000000000000000000000008152506136ba565b5b8060010154821115611d7557611d746040518060400160405280600581526020017f5245504159000000000000000000000000000000000000000000000000000000815250336040518060400160405280601681526020017f52455041595f414d4f554e545f544f4f5f4c41524745000000000000000000008152506136ba565b5b80600101548214611df657611df56040518060400160405280600581526020017f5245504159000000000000000000000000000000000000000000000000000000815250336040518060400160405280601581526020017f52455041595f414d4f554e545f4d49534d4154434800000000000000000000008152506136ba565b5b5f81600101819055506002816004015f6101000a81548160ff02191690836003811115611e2657611e25613b8f565b5b02179055503373ffffffffffffffffffffffffffffffffffffffff167fc7ce0a35f17b490de2a317e7fecb2cae86b1abffb03800b2f492823521382698835f604051611e7392919061414d565b60405180910390a2611ef26040518060400160405280600581526020017f52455041590000000000000000000000000000000000000000000000000000008152503360016040518060400160405280600b81526020017f4c4f414e5f524550414944000000000000000000000000000000000000000000815250612f85565b50611efb612f6b565b50565b5f5f60015f8473ffffffffffffffffffffffffffffffffffffffff1673ffffffffffffffffffffffffffffffffffffffff1681526020019081526020015f2090505f60025f8573ffffffffffffffffffffffffffffffffffffffff1673ffffffffffffffffffffffffffffffffffffffff1681526020019081526020015f205490505f828054905090505f4290505f600190505b8284101561208f575f858581548110611fae57611fad614023565b5b905f5260205f200190505f815f015f9054906101000a90046fffffffffffffffffffffffffffffffff166fffffffffffffffffffffffffffffffff1603612003578480611ffa90614083565b95505050611f92565b81815f0160109054906101000a900467ffffffffffffffff1667ffffffffffffffff166120309190614050565b83101561203d575061208f565b805f015f9054906101000a90046fffffffffffffffffffffffffffffffff166fffffffffffffffffffffffffffffffff16876120799190614050565b9650848061208690614083565b95505050611f92565b5050505050919050565b61019081565b6003602052805f5260405f205f915090505481565b6002602052805f5260405f205f915090505481565b6120d1612e6f565b6120da5f613703565b565b6006602052805f5260405f205f91509050805f015490806001015490806002015490806003015490806004015f9054906101000a900460ff16905085565b5f47905090565b600181565b60055481565b5f6001905090565b5f610190905090565b5f5f5f9054906101000a900473ffffffffffffffffffffffffffffffffffffffff16905090565b61216c612e6f565b612174612ef6565b5f5f6121818585856130ec565b91509150816121cb576121ca6040518060400160405280600981526020017f4f50454e5f4c4f414e000000000000000000000000000000000000000000000081525086836136ba565b5b5f60065f8773ffffffffffffffffffffffffffffffffffffffff1673ffffffffffffffffffffffffffffffffffffffff1681526020019081526020015f20905084815f018190555084816001018190555042816002018190555083426122319190614050565b81600301819055506001816004015f6101000a81548160ff021916908360038111156122605761225f613b8f565b5b02179055505f8673ffffffffffffffffffffffffffffffffffffffff168660405161228a906140f7565b5f6040518083038185875af1925050503d805f81146122c4576040519150601f19603f3d011682016040523d82523d5f602084013e6122c9565b606091505b5050905080612396575f825f01819055505f82600101819055505f82600201819055505f82600301819055505f826004015f6101000a81548160ff0219169083600381111561231b5761231a613b8f565b5b02179055506123956040518060400160405280600981526020017f4f50454e5f4c4f414e0000000000000000000000000000000000000000000000815250886040518060400160405280601681526020017f4e41544956455f5452414e534645525f4641494c4544000000000000000000008152506136ba565b5b8673ffffffffffffffffffffffffffffffffffffffff167f358baaa9e53bfd905e070f3c661316f5b8a4ca85664dcb9c3f60caffe720b5a387846002015485600301546040516123e893929190614174565b60405180910390a26124676040518060400160405280600981526020017f4f50454e5f4c4f414e00000000000000000000000000000000000000000000008152508860016040518060400160405280600281526020017f4f4b000000000000000000000000000000000000000000000000000000000000815250612f85565b50505050612473612f6b565b505050565b606060015f8373ffffffffffffffffffffffffffffffffffffffff1673ffffffffffffffffffffffffffffffffffffffff1681526020019081526020015f20805480602002602001604051908101604052809291908181526020015f905b8282101561257b578382905f5260205f20016040518060400160405290815f82015f9054906101000a90046fffffffffffffffffffffffffffffffff166fffffffffffffffffffffffffffffffff166fffffffffffffffffffffffffffffffff1681526020015f820160109054906101000a900467ffffffffffffffff1667ffffffffffffffff1667ffffffffffffffff1681525050815260200190600101906124d6565b505050509050919050565b5f5f5f5f5f5f5f60065f8973ffffffffffffffffffffffffffffffffffffffff1673ffffffffffffffffffffffffffffffffffffffff1681526020019081526020015f209050806004015f9054906101000a900460ff16815f015482600101548360020154846003015460075f8e73ffffffffffffffffffffffffffffffffffffffff1673ffffffffffffffffffffffffffffffffffffffff1681526020019081526020015f205f9054906101000a900460ff169650965096509650965096505091939550919395565b5f60075f8373ffffffffffffffffffffffffffffffffffffffff1673ffffffffffffffffffffffffffffffffffffffff1681526020019081526020015f205f9054906101000a900460ff169050919050565b6007602052805f5260405f205f915054906101000a900460ff1681565b738fe6b999dc680ccfdd5bf7eb0974218be2542daa81565b6126df612ef6565b5f810361275d5761275c6040518060400160405280600781526020017f4445504f53495400000000000000000000000000000000000000000000000000815250336040518060400160405280600b81526020017f414d4f554e545f5a45524f0000000000000000000000000000000000000000008152508461359c565b5b8034146127db576127da6040518060400160405280600781526020017f4445504f53495400000000000000000000000000000000000000000000000000815250336040518060400160405280600e81526020017f56414c55455f4d49534d415443480000000000000000000000000000000000008152508461359c565b5b6fffffffffffffffffffffffffffffffff801681111561286c5761286b6040518060400160405280600781526020017f4445504f53495400000000000000000000000000000000000000000000000000815250336040518060400160405280601081526020017f414d4f554e545f544f4f5f4c41524745000000000000000000000000000000008152508461359c565b5b5f612876826135e6565b90505f612882426137c4565b905060015f3373ffffffffffffffffffffffffffffffffffffffff1673ffffffffffffffffffffffffffffffffffffffff1681526020019081526020015f206040518060400160405280846fffffffffffffffffffffffffffffffff1681526020018367ffffffffffffffff16815250908060018154018082558091505060019003905f5260205f20015f909190919091505f820151815f015f6101000a8154816fffffffffffffffffffffffffffffffff02191690836fffffffffffffffffffffffffffffffff1602179055506020820151815f0160106101000a81548167ffffffffffffffff021916908367ffffffffffffffff16021790555050508260035f3373ffffffffffffffffffffffffffffffffffffffff1673ffffffffffffffffffffffffffffffffffffffff1681526020019081526020015f205f8282546129cc9190614050565b925050819055508260055f8282546129e49190614050565b925050819055503373ffffffffffffffffffffffffffffffffffffffff167f73a19dd210f1a7f902193214c0ee91dd35ee5b4d920cba8d519eca65a7b488ca8442604051612a339291906141a9565b60405180910390a2612ab36040518060400160405280600781526020017f4445504f534954000000000000000000000000000000000000000000000000008152503360016040518060400160405280600281526020017f4f4b00000000000000000000000000000000000000000000000000000000000081525087613649565b5050612abd612f6b565b50565b612ac8612e6f565b60075f8273ffffffffffffffffffffffffffffffffffffffff1673ffffffffffffffffffffffffffffffffffffffff1681526020019081526020015f205f9054906101000a900460ff16612bfe57612b8c6040518060400160405280600581526020017f554e42414e000000000000000000000000000000000000000000000000000000815250825f6040518060400160405280600a81526020017f4e4f545f42414e4e454400000000000000000000000000000000000000000000815250612f85565b6040518060400160405280600a81526020017f4e4f545f42414e4e4544000000000000000000000000000000000000000000008152506040517f5dc58cab000000000000000000000000000000000000000000000000000000008152600401612bf59190613f64565b60405180910390fd5b5f60075f8373ffffffffffffffffffffffffffffffffffffffff1673ffffffffffffffffffffffffffffffffffffffff1681526020019081526020015f205f6101000a81548160ff0219169083151502179055508073ffffffffffffffffffffffffffffffffffffffff167fe61c28525a985d0eed5a3f4509ef8238d0e6403865923186019aff60552c712a60405160405180910390a2612d0c6040518060400160405280600581526020017f554e42414e0000000000000000000000000000000000000000000000000000008152508260016040518060400160405280600281526020017f4f4b000000000000000000000000000000000000000000000000000000000000815250612f85565b50565b5f73c570abb715c7e51801ae7dea5b08af53c6718bad905090565b600781565b73360000000000000000000000000000000000000081565b612d4f612e6f565b5f73ffffffffffffffffffffffffffffffffffffffff168173ffffffffffffffffffffffffffffffffffffffff1603612dbf575f6040517f1e4fbdf7000000000000000000000000000000000000000000000000000000008152600401612db69190613b67565b60405180910390fd5b612dc881613703565b50565b5f5f5f5f60035f8673ffffffffffffffffffffffffffffffffffffffff1673ffffffffffffffffffffffffffffffffffffffff1681526020019081526020015f2054935060045f8673ffffffffffffffffffffffffffffffffffffffff1673ffffffffffffffffffffffffffffffffffffffff1681526020019081526020015f205492508284612e5b9190613ff0565b9150612e6685611efe565b90509193509193565b612e7761381f565b73ffffffffffffffffffffffffffffffffffffffff16612e9561213d565b73ffffffffffffffffffffffffffffffffffffffff1614612ef457612eb861381f565b6040517f118cdaa7000000000000000000000000000000000000000000000000000000008152600401612eeb9190613b67565b60405180910390fd5b565b612efe613826565b6002612f10612f0b613867565b613890565b5f0181905550565b612f258383836001613899565b612f6657826040517f5274afe7000000000000000000000000000000000000000000000000000000008152600401612f5d9190613b67565b60405180910390fd5b505050565b6001612f7d612f78613867565b613890565b5f0181905550565b5f60065f8573ffffffffffffffffffffffffffffffffffffffff1673ffffffffffffffffffffffffffffffffffffffff1681526020019081526020015f206040518060a00160405290815f8201548152602001600182015481526020016002820154815260200160038201548152602001600482015f9054906101000a900460ff16600381111561301957613018613b8f565b5b600381111561302b5761302a613b8f565b5b8152505090508373ffffffffffffffffffffffffffffffffffffffff167f439d78861de3de2ca0fe333735c5bf453b595c1033f6ad18851a178dee4475ea8685858560800151865f01518760200151886060015160075f8e73ffffffffffffffffffffffffffffffffffffffff1673ffffffffffffffffffffffffffffffffffffffff1681526020019081526020015f205f9054906101000a900460ff166040516130dd9897969594939291906141d0565b60405180910390a25050505050565b5f60605f8403613136575f6040518060400160405280600e81526020017f5052494e434950414c5f5a45524f00000000000000000000000000000000000081525091509150613594565b5f830361317d575f6040518060400160405280600981526020017f5445524d5f5a45524f000000000000000000000000000000000000000000000081525091509150613594565b60075f8673ffffffffffffffffffffffffffffffffffffffff1673ffffffffffffffffffffffffffffffffffffffff1681526020019081526020015f205f9054906101000a900460ff161561320c575f6040518060400160405280600f81526020017f424f52524f5745525f42414e4e4544000000000000000000000000000000000081525091509150613594565b83471015613254575f6040518060400160405280601b81526020017f494e53554646494349454e545f504f4f4c5f4c4951554944495459000000000081525091509150613594565b5f73ffffffffffffffffffffffffffffffffffffffff1673c570abb715c7e51801ae7dea5b08af53c6718bad73ffffffffffffffffffffffffffffffffffffffff1614613488575f73c570abb715c7e51801ae7dea5b08af53c6718bad90508073ffffffffffffffffffffffffffffffffffffffff166387b605a5876040518263ffffffff1660e01b81526004016132ec9190613b67565b602060405180830381865afa158015613307573d5f5f3e3d5ffd5b505050506040513d601f19601f8201168201806040525081019061332b9190614284565b613370575f6040518060400160405280600b81526020017f4d495353494e475f5342540000000000000000000000000000000000000000008152509250925050613594565b5f5f8273ffffffffffffffffffffffffffffffffffffffff1663d47875d0896040518263ffffffff1660e01b81526004016133ab9190613b67565b606060405180830381865afa1580156133c6573d5f5f3e3d5ffd5b505050506040513d601f19601f820116820180604052508101906133ea91906142af565b925050915080613437575f6040518060400160405280600d81526020017f53434f52455f494e56414c49440000000000000000000000000000000000000081525094509450505050613594565b610190821015613484575f6040518060400160405280600d81526020017f53434f52455f544f4f5f4c4f570000000000000000000000000000000000000081525094509450505050613594565b5050505b5f60065f8773ffffffffffffffffffffffffffffffffffffffff1673ffffffffffffffffffffffffffffffffffffffff1681526020019081526020015f209050600160038111156134dc576134db613b8f565b5b816004015f9054906101000a900460ff1660038111156134ff576134fe613b8f565b5b14801561351057505f816001015414155b15613556575f6040518060400160405280601381526020017f4143544956455f4c4f414e5f50524553454e54000000000000000000000000008152509250925050613594565b60016040518060400160405280600281526020017f4f4b00000000000000000000000000000000000000000000000000000000000081525092509250505b935093915050565b6135a984845f8585613649565b816040517fc562ace80000000000000000000000000000000000000000000000000000000081526004016135dd9190613f64565b60405180910390fd5b5f6fffffffffffffffffffffffffffffffff8016821115613641576080826040517f6dfcc650000000000000000000000000000000000000000000000000000000008152600401613638929190614344565b60405180910390fd5b819050919050565b5f4790505f61365786611efe565b90508573ffffffffffffffffffffffffffffffffffffffff167f16566471137b2218c643051ab8624837831d5d4c3bdef05d6c62baa87d1e64ad8887878787876040516136a99695949392919061436b565b60405180910390a250505050505050565b6136c683835f84612f85565b806040517f654f15460000000000000000000000000000000000000000000000000000000081526004016136fa9190613f64565b60405180910390fd5b5f5f5f9054906101000a900473ffffffffffffffffffffffffffffffffffffffff169050815f5f6101000a81548173ffffffffffffffffffffffffffffffffffffffff021916908373ffffffffffffffffffffffffffffffffffffffff1602179055508173ffffffffffffffffffffffffffffffffffffffff168173ffffffffffffffffffffffffffffffffffffffff167f8be0079c531659141344cd1fd0a4f28419497f9722a3daafe3b4186f6b6457e060405160405180910390a35050565b5f67ffffffffffffffff8016821115613817576040826040517f6dfcc65000000000000000000000000000000000000000000000000000000000815260040161380e929190614411565b60405180910390fd5b819050919050565b5f33905090565b61382e6138fb565b15613865576040517f3ee5aeb500000000000000000000000000000000000000000000000000000000815260040160405180910390fd5b565b5f7f9b779b17422d0df92223018b32b4d1fa46e071723d6817e2486d003becc55f005f1b905090565b5f819050919050565b5f5f63a9059cbb60e01b9050604051815f525f1960601c86166004528460245260205f60445f5f8b5af1925060015f511483166138ed5783831516156138e1573d5f823e3d81fd5b5f873b113d1516831692505b806040525050949350505050565b5f600261390e613909613867565b613890565b5f015414905090565b6040518060a001604052805f81526020015f81526020015f81526020015f81526020015f600381111561394d5761394c613b8f565b5b81525090565b5f5ffd5b5f73ffffffffffffffffffffffffffffffffffffffff82169050919050565b5f61398082613957565b9050919050565b61399081613976565b811461399a575f5ffd5b50565b5f813590506139ab81613987565b92915050565b5f819050919050565b6139c3816139b1565b81146139cd575f5ffd5b50565b5f813590506139de816139ba565b92915050565b5f5f604083850312156139fa576139f9613953565b5b5f613a078582860161399d565b9250506020613a18858286016139d0565b9150509250929050565b5f60208284031215613a3757613a36613953565b5b5f613a448482850161399d565b91505092915050565b613a56816139b1565b82525050565b5f602082019050613a6f5f830184613a4d565b92915050565b5f8115159050919050565b613a8981613a75565b82525050565b5f81519050919050565b5f82825260208201905092915050565b8281835e5f83830152505050565b5f601f19601f8301169050919050565b5f613ad182613a8f565b613adb8185613a99565b9350613aeb818560208601613aa9565b613af481613ab7565b840191505092915050565b5f604082019050613b125f830185613a80565b8181036020830152613b248184613ac7565b90509392505050565b5f60208284031215613b4257613b41613953565b5b5f613b4f848285016139d0565b91505092915050565b613b6181613976565b82525050565b5f602082019050613b7a5f830184613b58565b92915050565b613b89816139b1565b82525050565b7f4e487b71000000000000000000000000000000000000000000000000000000005f52602160045260245ffd5b60048110613bcd57613bcc613b8f565b5b50565b5f819050613bdd82613bbc565b919050565b5f613bec82613bd0565b9050919050565b613bfc81613be2565b82525050565b60a082015f820151613c165f850182613b80565b506020820151613c296020850182613b80565b506040820151613c3c6040850182613b80565b506060820151613c4f6060850182613b80565b506080820151613c626080850182613bf3565b50505050565b5f60a082019050613c7b5f830184613c02565b92915050565b5f63ffffffff82169050919050565b613c9981613c81565b82525050565b5f602082019050613cb25f830184613c90565b92915050565b613cc181613be2565b82525050565b5f60a082019050613cda5f830188613a4d565b613ce76020830187613a4d565b613cf46040830186613a4d565b613d016060830185613a4d565b613d0e6080830184613cb8565b9695505050505050565b5f5f5f60608486031215613d2f57613d2e613953565b5b5f613d3c8682870161399d565b9350506020613d4d868287016139d0565b9250506040613d5e868287016139d0565b9150509250925092565b5f81519050919050565b5f82825260208201905092915050565b5f819050602082019050919050565b5f6fffffffffffffffffffffffffffffffff82169050919050565b613db581613d91565b82525050565b5f67ffffffffffffffff82169050919050565b613dd781613dbb565b82525050565b604082015f820151613df15f850182613dac565b506020820151613e046020850182613dce565b50505050565b5f613e158383613ddd565b60408301905092915050565b5f602082019050919050565b5f613e3782613d68565b613e418185613d72565b9350613e4c83613d82565b805f5b83811015613e7c578151613e638882613e0a565b9750613e6e83613e21565b925050600181019050613e4f565b5085935050505092915050565b5f6020820190508181035f830152613ea18184613e2d565b905092915050565b5f60c082019050613ebc5f830189613cb8565b613ec96020830188613a4d565b613ed66040830187613a4d565b613ee36060830186613a4d565b613ef06080830185613a4d565b613efd60a0830184613a80565b979650505050505050565b5f602082019050613f1b5f830184613a80565b92915050565b5f608082019050613f345f830187613a4d565b613f416020830186613a4d565b613f4e6040830185613a4d565b613f5b6060830184613a4d565b95945050505050565b5f6020820190508181035f830152613f7c8184613ac7565b905092915050565b5f81519050613f92816139ba565b92915050565b5f60208284031215613fad57613fac613953565b5b5f613fba84828501613f84565b91505092915050565b7f4e487b71000000000000000000000000000000000000000000000000000000005f52601160045260245ffd5b5f613ffa826139b1565b9150614005836139b1565b925082820390508181111561401d5761401c613fc3565b5b92915050565b7f4e487b71000000000000000000000000000000000000000000000000000000005f52603260045260245ffd5b5f61405a826139b1565b9150614065836139b1565b925082820190508082111561407d5761407c613fc3565b5b92915050565b5f61408d826139b1565b91507fffffffffffffffffffffffffffffffffffffffffffffffffffffffffffffffff82036140bf576140be613fc3565b5b600182019050919050565b5f81905092915050565b50565b5f6140e25f836140ca565b91506140ed826140d4565b5f82019050919050565b5f614101826140d7565b9150819050919050565b5f819050919050565b5f819050919050565b5f61413761413261412d8461410b565b614114565b6139b1565b9050919050565b6141478161411d565b82525050565b5f6040820190506141605f830185613a4d565b61416d602083018461413e565b9392505050565b5f6060820190506141875f830186613a4d565b6141946020830185613a4d565b6141a16040830184613a4d565b949350505050565b5f6040820190506141bc5f830185613a4d565b6141c96020830184613a4d565b9392505050565b5f610100820190508181035f8301526141e9818b613ac7565b90506141f8602083018a613a80565b818103604083015261420a8189613ac7565b90506142196060830188613cb8565b6142266080830187613a4d565b61423360a0830186613a4d565b61424060c0830185613a4d565b61424d60e0830184613a80565b9998505050505050505050565b61426381613a75565b811461426d575f5ffd5b50565b5f8151905061427e8161425a565b92915050565b5f6020828403121561429957614298613953565b5b5f6142a684828501614270565b91505092915050565b5f5f5f606084860312156142c6576142c5613953565b5b5f6142d386828701613f84565b93505060206142e486828701613f84565b92505060406142f586828701614270565b9150509250925092565b5f819050919050565b5f60ff82169050919050565b5f61432e614329614324846142ff565b614114565b614308565b9050919050565b61433e81614314565b82525050565b5f6040820190506143575f830185614335565b6143646020830184613a4d565b9392505050565b5f60c0820190508181035f8301526143838189613ac7565b90506143926020830188613a80565b81810360408301526143a48187613ac7565b90506143b36060830186613a4d565b6143c06080830185613a4d565b6143cd60a0830184613a4d565b979650505050505050565b5f819050919050565b5f6143fb6143f66143f1846143d8565b614114565b614308565b9050919050565b61440b816143e1565b82525050565b5f6040820190506144245f830185614402565b6144316020830184613a4d565b939250505056fea26469706673582212208a8e1231181053c8f6f2aedf4968cb161b98dbc17ded01d3cb73d41d10be478664736f6c634300081e0033","linkReferences":{}},"methodIdentifiers":{"ARC_USDC_ADDRESS()":"cbb923f4","CCTP_DEFAULT_MIN_FINALITY()":"337390d2","CCTP_POLYGON_DOMAIN()":"ca8b50ae","CCTP_TOKEN_MESSENGER()":"a02cae41","DEPOSIT_LOCK_SECONDS()":"7a6a0bcb","MIN_SCORE_TO_BORROW()":"4d8a8714","TRUST_MINT_SBT()":"209468af","availableLiquidity()":"74375359","banned(address)":"9c8d83bb","canOpenLoan(address,uint256)":"16a5fd6f","checkDefaultAndBan(address)":"1340ead9","deposit(uint256)":"b6b55f25","depositLockSeconds()":"7d9be033","getDeposits(address)":"94f649dd","getLoan(address)":"33481fc9","isBanned(address)":"97f735d5","lenderBalance(address)":"275972ca","lenderStatus(address)":"f3b4d40a","loanStatus(address)":"958e092a","loans(address)":"73b4086b","minScoreToBorrow()":"82ec62d1","nextWithdrawalIndex(address)":"686b46ec","openLoan(address,uint256,uint256)":"90708601","owner()":"8da5cb5b","prepareCctpBridge(uint256)":"178d11c7","previewWithdraw(address)":"3b35269c","renounceOwnership()":"715018a6","repay(uint256)":"371fd8e6","totalDeposited(address)":"53055481","totalDeposits()":"7d882097","totalWithdrawn(address)":"0a64143a","transferOwnership(address)":"f2fde38b","transferUsdcOnArc(address,uint256)":"091d7d6c","trustMintSbt()":"c0d76835","unban(address)":"b9f14557","withdraw(uint256)":"2e1a7d4d"},"id":25}